{
  "contractName": "LubyCoin",
  "abi": [
    {
      "inputs": [
        {
          "internalType": "uint256",
          "name": "_initialSupply",
          "type": "uint256"
        }
      ],
      "stateMutability": "nonpayable",
      "type": "constructor"
    },
    {
      "anonymous": false,
      "inputs": [
        {
          "indexed": true,
          "internalType": "address",
          "name": "owner",
          "type": "address"
        },
        {
          "indexed": true,
          "internalType": "address",
          "name": "spender",
          "type": "address"
        },
        {
          "indexed": false,
          "internalType": "uint256",
          "name": "value",
          "type": "uint256"
        }
      ],
      "name": "Approval",
      "type": "event"
    },
    {
      "anonymous": false,
      "inputs": [
        {
          "indexed": true,
          "internalType": "address",
          "name": "previousOwner",
          "type": "address"
        },
        {
          "indexed": true,
          "internalType": "address",
          "name": "newOwner",
          "type": "address"
        }
      ],
      "name": "OwnershipTransferred",
      "type": "event"
    },
    {
      "anonymous": false,
      "inputs": [
        {
          "indexed": false,
          "internalType": "address",
          "name": "account",
          "type": "address"
        }
      ],
      "name": "Paused",
      "type": "event"
    },
    {
      "anonymous": false,
      "inputs": [
        {
          "indexed": true,
          "internalType": "address",
          "name": "from",
          "type": "address"
        },
        {
          "indexed": true,
          "internalType": "address",
          "name": "to",
          "type": "address"
        },
        {
          "indexed": false,
          "internalType": "uint256",
          "name": "value",
          "type": "uint256"
        }
      ],
      "name": "Transfer",
      "type": "event"
    },
    {
      "anonymous": false,
      "inputs": [
        {
          "indexed": false,
          "internalType": "address",
          "name": "account",
          "type": "address"
        }
      ],
      "name": "Unpaused",
      "type": "event"
    },
    {
      "inputs": [
        {
          "internalType": "address",
          "name": "owner",
          "type": "address"
        },
        {
          "internalType": "address",
          "name": "spender",
          "type": "address"
        }
      ],
      "name": "allowance",
      "outputs": [
        {
          "internalType": "uint256",
          "name": "",
          "type": "uint256"
        }
      ],
      "stateMutability": "view",
      "type": "function"
    },
    {
      "inputs": [
        {
          "internalType": "address",
          "name": "spender",
          "type": "address"
        },
        {
          "internalType": "uint256",
          "name": "amount",
          "type": "uint256"
        }
      ],
      "name": "approve",
      "outputs": [
        {
          "internalType": "bool",
          "name": "",
          "type": "bool"
        }
      ],
      "stateMutability": "nonpayable",
      "type": "function"
    },
    {
      "inputs": [
        {
          "internalType": "address",
          "name": "account",
          "type": "address"
        }
      ],
      "name": "balanceOf",
      "outputs": [
        {
          "internalType": "uint256",
          "name": "",
          "type": "uint256"
        }
      ],
      "stateMutability": "view",
      "type": "function"
    },
    {
      "inputs": [
        {
          "internalType": "address",
          "name": "spender",
          "type": "address"
        },
        {
          "internalType": "uint256",
          "name": "subtractedValue",
          "type": "uint256"
        }
      ],
      "name": "decreaseAllowance",
      "outputs": [
        {
          "internalType": "bool",
          "name": "",
          "type": "bool"
        }
      ],
      "stateMutability": "nonpayable",
      "type": "function"
    },
    {
      "inputs": [
        {
          "internalType": "address",
          "name": "spender",
          "type": "address"
        },
        {
          "internalType": "uint256",
          "name": "addedValue",
          "type": "uint256"
        }
      ],
      "name": "increaseAllowance",
      "outputs": [
        {
          "internalType": "bool",
          "name": "",
          "type": "bool"
        }
      ],
      "stateMutability": "nonpayable",
      "type": "function"
    },
    {
      "inputs": [],
      "name": "name",
      "outputs": [
        {
          "internalType": "string",
          "name": "",
          "type": "string"
        }
      ],
      "stateMutability": "view",
      "type": "function"
    },
    {
      "inputs": [],
      "name": "owner",
      "outputs": [
        {
          "internalType": "address",
          "name": "",
          "type": "address"
        }
      ],
      "stateMutability": "view",
      "type": "function"
    },
    {
      "inputs": [],
      "name": "paused",
      "outputs": [
        {
          "internalType": "bool",
          "name": "",
          "type": "bool"
        }
      ],
      "stateMutability": "view",
      "type": "function"
    },
    {
      "inputs": [],
      "name": "renounceOwnership",
      "outputs": [],
      "stateMutability": "nonpayable",
      "type": "function"
    },
    {
      "inputs": [],
      "name": "symbol",
      "outputs": [
        {
          "internalType": "string",
          "name": "",
          "type": "string"
        }
      ],
      "stateMutability": "view",
      "type": "function"
    },
    {
      "inputs": [],
      "name": "totalSupply",
      "outputs": [
        {
          "internalType": "uint256",
          "name": "",
          "type": "uint256"
        }
      ],
      "stateMutability": "view",
      "type": "function"
    },
    {
      "inputs": [
        {
          "internalType": "address",
          "name": "to",
          "type": "address"
        },
        {
          "internalType": "uint256",
          "name": "amount",
          "type": "uint256"
        }
      ],
      "name": "transfer",
      "outputs": [
        {
          "internalType": "bool",
          "name": "",
          "type": "bool"
        }
      ],
      "stateMutability": "nonpayable",
      "type": "function"
    },
    {
      "inputs": [
        {
          "internalType": "address",
          "name": "from",
          "type": "address"
        },
        {
          "internalType": "address",
          "name": "to",
          "type": "address"
        },
        {
          "internalType": "uint256",
          "name": "amount",
          "type": "uint256"
        }
      ],
      "name": "transferFrom",
      "outputs": [
        {
          "internalType": "bool",
          "name": "",
          "type": "bool"
        }
      ],
      "stateMutability": "nonpayable",
      "type": "function"
    },
    {
      "inputs": [
        {
          "internalType": "address",
          "name": "newOwner",
          "type": "address"
        }
      ],
      "name": "transferOwnership",
      "outputs": [],
      "stateMutability": "nonpayable",
      "type": "function"
    },
    {
      "inputs": [],
      "name": "decimals",
      "outputs": [
        {
          "internalType": "uint8",
          "name": "",
          "type": "uint8"
        }
      ],
      "stateMutability": "pure",
      "type": "function"
    },
    {
      "inputs": [],
      "name": "pause",
      "outputs": [],
      "stateMutability": "nonpayable",
      "type": "function"
    },
    {
      "inputs": [],
      "name": "unpause",
      "outputs": [],
      "stateMutability": "nonpayable",
      "type": "function"
    },
    {
      "inputs": [
        {
          "internalType": "address",
          "name": "_newVip",
          "type": "address"
        }
      ],
      "name": "makeVip",
      "outputs": [],
      "stateMutability": "nonpayable",
      "type": "function"
    },
    {
      "inputs": [
        {
          "internalType": "uint256",
          "name": "_newTax",
          "type": "uint256"
        }
      ],
      "name": "setTax",
      "outputs": [],
      "stateMutability": "nonpayable",
      "type": "function"
    },
    {
      "inputs": [
        {
          "internalType": "address",
          "name": "to",
          "type": "address"
        },
        {
          "internalType": "uint256",
          "name": "amount",
          "type": "uint256"
        }
      ],
      "name": "transferTo",
      "outputs": [
        {
          "internalType": "bool",
          "name": "",
          "type": "bool"
        }
      ],
      "stateMutability": "nonpayable",
      "type": "function"
    },
    {
      "inputs": [
        {
          "internalType": "address",
          "name": "to",
          "type": "address"
        },
        {
          "internalType": "uint256",
          "name": "amount",
          "type": "uint256"
        }
      ],
      "name": "donate",
      "outputs": [
        {
          "internalType": "bool",
          "name": "",
          "type": "bool"
        }
      ],
      "stateMutability": "payable",
      "type": "function"
    }
  ],
  "bytecode": "0x60806040526127106006553480156200001757600080fd5b5060405162002e1e38038062002e1e83398181016040528101906200003d9190620003c2565b6040518060400160405280600881526020017f4c756279436f696e0000000000000000000000000000000000000000000000008152506040518060400160405280600381526020017f4c424300000000000000000000000000000000000000000000000000000000008152508160039081620000ba919062000664565b508060049081620000cc919062000664565b505050620000ef620000e36200013260201b60201c565b6200013a60201b60201c565b6000600560146101000a81548160ff0219169083151502179055506200012b6200011e6200013260201b60201c565b826200020060201b60201c565b5062000866565b600033905090565b6000600560009054906101000a900473ffffffffffffffffffffffffffffffffffffffff16905081600560006101000a81548173ffffffffffffffffffffffffffffffffffffffff021916908373ffffffffffffffffffffffffffffffffffffffff1602179055508173ffffffffffffffffffffffffffffffffffffffff168173ffffffffffffffffffffffffffffffffffffffff167f8be0079c531659141344cd1fd0a4f28419497f9722a3daafe3b4186f6b6457e060405160405180910390a35050565b600073ffffffffffffffffffffffffffffffffffffffff168273ffffffffffffffffffffffffffffffffffffffff160362000272576040517f08c379a00000000000000000000000000000000000000000000000000000000081526004016200026990620007ac565b60405180910390fd5b62000286600083836200037860201b60201c565b80600260008282546200029a9190620007fd565b92505081905550806000808473ffffffffffffffffffffffffffffffffffffffff1673ffffffffffffffffffffffffffffffffffffffff1681526020019081526020016000206000828254620002f19190620007fd565b925050819055508173ffffffffffffffffffffffffffffffffffffffff16600073ffffffffffffffffffffffffffffffffffffffff167fddf252ad1be2c89b69c2b068fc378daa952ba7f163c4a11628f55a4df523b3ef8360405162000358919062000849565b60405180910390a362000374600083836200037d60201b60201c565b5050565b505050565b505050565b600080fd5b6000819050919050565b6200039c8162000387565b8114620003a857600080fd5b50565b600081519050620003bc8162000391565b92915050565b600060208284031215620003db57620003da62000382565b5b6000620003eb84828501620003ab565b91505092915050565b600081519050919050565b7f4e487b7100000000000000000000000000000000000000000000000000000000600052604160045260246000fd5b7f4e487b7100000000000000000000000000000000000000000000000000000000600052602260045260246000fd5b600060028204905060018216806200047657607f821691505b6020821081036200048c576200048b6200042e565b5b50919050565b60008190508160005260206000209050919050565b60006020601f8301049050919050565b600082821b905092915050565b600060088302620004f67fffffffffffffffffffffffffffffffffffffffffffffffffffffffffffffffff82620004b7565b620005028683620004b7565b95508019841693508086168417925050509392505050565b6000819050919050565b6000620005456200053f620005398462000387565b6200051a565b62000387565b9050919050565b6000819050919050565b620005618362000524565b6200057962000570826200054c565b848454620004c4565b825550505050565b600090565b6200059062000581565b6200059d81848462000556565b505050565b5b81811015620005c557620005b960008262000586565b600181019050620005a3565b5050565b601f8211156200061457620005de8162000492565b620005e984620004a7565b81016020851015620005f9578190505b620006116200060885620004a7565b830182620005a2565b50505b505050565b600082821c905092915050565b6000620006396000198460080262000619565b1980831691505092915050565b600062000654838362000626565b9150826002028217905092915050565b6200066f82620003f4565b67ffffffffffffffff8111156200068b576200068a620003ff565b5b6200069782546200045d565b620006a4828285620005c9565b600060209050601f831160018114620006dc5760008415620006c7578287015190505b620006d3858262000646565b86555062000743565b601f198416620006ec8662000492565b60005b828110156200071657848901518255600182019150602085019450602081019050620006ef565b8683101562000736578489015162000732601f89168262000626565b8355505b6001600288020188555050505b505050505050565b600082825260208201905092915050565b7f45524332303a206d696e7420746f20746865207a65726f206164647265737300600082015250565b600062000794601f836200074b565b9150620007a1826200075c565b602082019050919050565b60006020820190508181036000830152620007c78162000785565b9050919050565b7f4e487b7100000000000000000000000000000000000000000000000000000000600052601160045260246000fd5b60006200080a8262000387565b9150620008178362000387565b9250828201905080821115620008325762000831620007ce565b5b92915050565b620008438162000387565b82525050565b600060208201905062000860600083018462000838565b92915050565b6125a880620008766000396000f3fe60806040526004361061012a5760003560e01c80635c975abb116100ab57806395d89b411161006f57806395d89b41146103ce578063a457c2d7146103f9578063a9059cbb14610436578063dd62ed3e14610473578063e69d849d146104b0578063f2fde38b146104e05761012a565b80635c975abb1461030d57806370a0823114610338578063715018a6146103755780638456cb591461038c5780638da5cb5b146103a35761012a565b80632e5bb6ff116100f25780632e5bb6ff1461023c578063313ce5671461026557806339509351146102905780633f4ba83a146102cd57806349475ebb146102e45761012a565b806306fdde031461012f578063095ea7b31461015a57806318160ddd1461019757806323b872dd146101c25780632ccb1b30146101ff575b600080fd5b34801561013b57600080fd5b50610144610509565b604051610151919061184e565b60405180910390f35b34801561016657600080fd5b50610181600480360381019061017c9190611909565b61059b565b60405161018e9190611964565b60405180910390f35b3480156101a357600080fd5b506101ac6105be565b6040516101b9919061198e565b60405180910390f35b3480156101ce57600080fd5b506101e960048036038101906101e491906119a9565b6105c8565b6040516101f69190611964565b60405180910390f35b34801561020b57600080fd5b5061022660048036038101906102219190611909565b6105f7565b6040516102339190611964565b60405180910390f35b34801561024857600080fd5b50610263600480360381019061025e91906119fc565b61066f565b005b34801561027157600080fd5b5061027a6106c5565b6040516102879190611a45565b60405180910390f35b34801561029c57600080fd5b506102b760048036038101906102b29190611909565b6106ce565b6040516102c49190611964565b60405180910390f35b3480156102d957600080fd5b506102e2610705565b005b3480156102f057600080fd5b5061030b60048036038101906103069190611a60565b610717565b005b34801561031957600080fd5b5061032261077a565b60405161032f9190611964565b60405180910390f35b34801561034457600080fd5b5061035f600480360381019061035a9190611a60565b610791565b60405161036c919061198e565b60405180910390f35b34801561038157600080fd5b5061038a6107d9565b005b34801561039857600080fd5b506103a16107ed565b005b3480156103af57600080fd5b506103b86107ff565b6040516103c59190611a9c565b60405180910390f35b3480156103da57600080fd5b506103e3610829565b6040516103f0919061184e565b60405180910390f35b34801561040557600080fd5b50610420600480360381019061041b9190611909565b6108bb565b60405161042d9190611964565b60405180910390f35b34801561044257600080fd5b5061045d60048036038101906104589190611909565b610932565b60405161046a9190611964565b60405180910390f35b34801561047f57600080fd5b5061049a60048036038101906104959190611ab7565b610955565b6040516104a7919061198e565b60405180910390f35b6104ca60048036038101906104c59190611909565b6109dc565b6040516104d79190611964565b60405180910390f35b3480156104ec57600080fd5b5061050760048036038101906105029190611a60565b610b43565b005b60606003805461051890611b26565b80601f016020809104026020016040519081016040528092919081815260200182805461054490611b26565b80156105915780601f1061056657610100808354040283529160200191610591565b820191906000526020600020905b81548152906001019060200180831161057457829003601f168201915b5050505050905090565b6000806105a6610bc6565b90506105b3818585610bce565b600191505092915050565b6000600254905090565b6000806105d3610bc6565b90506105e0858285610d97565b6105eb858585610e23565b60019150509392505050565b600060076000610605610bc6565b73ffffffffffffffffffffffffffffffffffffffff1673ffffffffffffffffffffffffffffffffffffffff16815260200190815260200160002060009054906101000a900460ff1661065d5761065a826110a2565b91505b6106678383610932565b905092915050565b6106776110d2565b60008110156106bb576040517f08c379a00000000000000000000000000000000000000000000000000000000081526004016106b290611ba3565b60405180910390fd5b8060068190555050565b60006003905090565b6000806106d9610bc6565b90506106fa8185856106eb8589610955565b6106f59190611bf2565b610bce565b600191505092915050565b61070d6110d2565b610715611150565b565b61071f6110d2565b6001600760008373ffffffffffffffffffffffffffffffffffffffff1673ffffffffffffffffffffffffffffffffffffffff16815260200190815260200160002060006101000a81548160ff02191690831515021790555050565b6000600560149054906101000a900460ff16905090565b60008060008373ffffffffffffffffffffffffffffffffffffffff1673ffffffffffffffffffffffffffffffffffffffff168152602001908152602001600020549050919050565b6107e16110d2565b6107eb60006111b3565b565b6107f56110d2565b6107fd611279565b565b6000600560009054906101000a900473ffffffffffffffffffffffffffffffffffffffff16905090565b60606004805461083890611b26565b80601f016020809104026020016040519081016040528092919081815260200182805461086490611b26565b80156108b15780601f10610886576101008083540402835291602001916108b1565b820191906000526020600020905b81548152906001019060200180831161089457829003601f168201915b5050505050905090565b6000806108c6610bc6565b905060006108d48286610955565b905083811015610919576040517f08c379a000000000000000000000000000000000000000000000000000000000815260040161091090611c98565b60405180910390fd5b6109268286868403610bce565b60019250505092915050565b60008061093d610bc6565b905061094a818585610e23565b600191505092915050565b6000600160008473ffffffffffffffffffffffffffffffffffffffff1673ffffffffffffffffffffffffffffffffffffffff16815260200190815260200160002060008373ffffffffffffffffffffffffffffffffffffffff1673ffffffffffffffffffffffffffffffffffffffff16815260200190815260200160002054905092915050565b60006109e6610bc6565b6000600860008373ffffffffffffffffffffffffffffffffffffffff1673ffffffffffffffffffffffffffffffffffffffff16815260200190815260200160002054905042610a3f6001836112dc90919063ffffffff16565b1115610a80576040517f08c379a0000000000000000000000000000000000000000000000000000000008152600401610a7790611d2a565b60405180910390fd5b670de0b6b3a7640000341115610acb576040517f08c379a0000000000000000000000000000000000000000000000000000000008152600401610ac290611dbc565b60405180910390fd5b60076000610ad7610bc6565b73ffffffffffffffffffffffffffffffffffffffff1673ffffffffffffffffffffffffffffffffffffffff16815260200190815260200160002060009054906101000a900460ff16610b2f57610b2c846110a2565b93505b610b398585610932565b9250505092915050565b610b4b6110d2565b600073ffffffffffffffffffffffffffffffffffffffff168173ffffffffffffffffffffffffffffffffffffffff1603610bba576040517f08c379a0000000000000000000000000000000000000000000000000000000008152600401610bb190611e4e565b60405180910390fd5b610bc3816111b3565b50565b600033905090565b600073ffffffffffffffffffffffffffffffffffffffff168373ffffffffffffffffffffffffffffffffffffffff1603610c3d576040517f08c379a0000000000000000000000000000000000000000000000000000000008152600401610c3490611ee0565b60405180910390fd5b600073ffffffffffffffffffffffffffffffffffffffff168273ffffffffffffffffffffffffffffffffffffffff1603610cac576040517f08c379a0000000000000000000000000000000000000000000000000000000008152600401610ca390611f72565b60405180910390fd5b80600160008573ffffffffffffffffffffffffffffffffffffffff1673ffffffffffffffffffffffffffffffffffffffff16815260200190815260200160002060008473ffffffffffffffffffffffffffffffffffffffff1673ffffffffffffffffffffffffffffffffffffffff168152602001908152602001600020819055508173ffffffffffffffffffffffffffffffffffffffff168373ffffffffffffffffffffffffffffffffffffffff167f8c5be1e5ebec7d5bd14f71427d1e84f3dd0314c0f7b2291e5b200ac8c7c3b92583604051610d8a919061198e565b60405180910390a3505050565b6000610da38484610955565b90507fffffffffffffffffffffffffffffffffffffffffffffffffffffffffffffffff8114610e1d5781811015610e0f576040517f08c379a0000000000000000000000000000000000000000000000000000000008152600401610e0690611fde565b60405180910390fd5b610e1c8484848403610bce565b5b50505050565b600073ffffffffffffffffffffffffffffffffffffffff168373ffffffffffffffffffffffffffffffffffffffff1603610e92576040517f08c379a0000000000000000000000000000000000000000000000000000000008152600401610e8990612070565b60405180910390fd5b600073ffffffffffffffffffffffffffffffffffffffff168273ffffffffffffffffffffffffffffffffffffffff1603610f01576040517f08c379a0000000000000000000000000000000000000000000000000000000008152600401610ef890612102565b60405180910390fd5b610f0c8383836113bf565b60008060008573ffffffffffffffffffffffffffffffffffffffff1673ffffffffffffffffffffffffffffffffffffffff16815260200190815260200160002054905081811015610f92576040517f08c379a0000000000000000000000000000000000000000000000000000000008152600401610f8990612194565b60405180910390fd5b8181036000808673ffffffffffffffffffffffffffffffffffffffff1673ffffffffffffffffffffffffffffffffffffffff16815260200190815260200160002081905550816000808573ffffffffffffffffffffffffffffffffffffffff1673ffffffffffffffffffffffffffffffffffffffff16815260200190815260200160002060008282546110259190611bf2565b925050819055508273ffffffffffffffffffffffffffffffffffffffff168473ffffffffffffffffffffffffffffffffffffffff167fddf252ad1be2c89b69c2b068fc378daa952ba7f163c4a11628f55a4df523b3ef84604051611089919061198e565b60405180910390a361109c8484846113c4565b50505050565b6000806110ae836113c9565b90506110ba3082610932565b5080836110c791906121b4565b925082915050919050565b6110da610bc6565b73ffffffffffffffffffffffffffffffffffffffff166110f86107ff565b73ffffffffffffffffffffffffffffffffffffffff161461114e576040517f08c379a000000000000000000000000000000000000000000000000000000000815260040161114590612234565b60405180910390fd5b565b6111586113f3565b6000600560146101000a81548160ff0219169083151502179055507f5db9ee0a495bf2e6ff9c91a7834c1ba4fdd244a5e8aa4e537bd38aeae4b073aa61119c610bc6565b6040516111a99190611a9c565b60405180910390a1565b6000600560009054906101000a900473ffffffffffffffffffffffffffffffffffffffff16905081600560006101000a81548173ffffffffffffffffffffffffffffffffffffffff021916908373ffffffffffffffffffffffffffffffffffffffff1602179055508173ffffffffffffffffffffffffffffffffffffffff168173ffffffffffffffffffffffffffffffffffffffff167f8be0079c531659141344cd1fd0a4f28419497f9722a3daafe3b4186f6b6457e060405160405180910390a35050565b61128161143c565b6001600560146101000a81548160ff0219169083151502179055507f62e78cea01bee320cd4e420270b5ea74000d11b0c9f74754ebdbfc544b05a2586112c5610bc6565b6040516112d29190611a9c565b60405180910390a1565b6000806000806112f962015180876112f49190612283565b611486565b925092509250848261130b9190611bf2565b9150600c60018361131c91906121b4565b6113269190612283565b836113319190611bf2565b92506001600c60018461134491906121b4565b61134e91906122b4565b6113589190611bf2565b91506000611366848461158b565b905080821115611374578091505b620151808761138391906122b4565b62015180611392868686611616565b61139c91906122e5565b6113a69190611bf2565b9450868510156113b557600080fd5b5050505092915050565b505050565b505050565b600080620186a0600654846113de91906122e5565b6113e89190612283565b905080915050919050565b6113fb61077a565b61143a576040517f08c379a000000000000000000000000000000000000000000000000000000000815260040161143190612373565b60405180910390fd5b565b61144461077a565b15611484576040517f08c379a000000000000000000000000000000000000000000000000000000000815260040161147b906123df565b60405180910390fd5b565b600080600080849050600062253d8c62010bd98301019050600062023ab182600402816114b6576114b5612254565b5b059050600460038262023ab10201816114d2576114d1612254565b5b0582039150600062164b0960018401610fa002816114f3576114f2612254565b5b059050601f6004826105b5028161150d5761150c612254565b5b058403019250600061098f846050028161152a57611529612254565b5b059050600060508261098f028161154457611543612254565b5b0585039050600b828161155a57611559612254565b5b05945084600c0260028301039150848360318603606402010192508298508197508096505050505050509193909250565b6000600182148061159c5750600382145b806115a75750600582145b806115b25750600782145b806115bd5750600882145b806115c85750600a82145b806115d35750600c82145b156115e157601f9050611610565b600282146115f257601e905061160f565b6115fb83611775565b61160657601c611609565b601d5b60ff1690505b5b92915050565b60006107b284101561162757600080fd5b600084905060008490506000849050600062253d8c60046064600c600e8761164f9190612409565b611659919061244c565b6113248861166791906124b6565b61167191906124b6565b61167b919061244c565b600361168791906124fa565b611691919061244c565b600c80600c600e886116a39190612409565b6116ad919061244c565b6116b791906124fa565b6002876116c49190612409565b6116ce9190612409565b61016f6116db91906124fa565b6116e5919061244c565b6004600c600e886116f69190612409565b611700919061244c565b6112c08961170e91906124b6565b61171891906124b6565b6105b561172591906124fa565b61172f919061244c565b617d4b8661173d9190612409565b61174791906124b6565b61175191906124b6565b61175b9190612409565b6117659190612409565b9050809450505050509392505050565b60008060048361178591906122b4565b14801561179f5750600060648361179c91906122b4565b14155b806117b757506000610190836117b591906122b4565b145b9050919050565b600081519050919050565b600082825260208201905092915050565b60005b838110156117f85780820151818401526020810190506117dd565b60008484015250505050565b6000601f19601f8301169050919050565b6000611820826117be565b61182a81856117c9565b935061183a8185602086016117da565b61184381611804565b840191505092915050565b600060208201905081810360008301526118688184611815565b905092915050565b600080fd5b600073ffffffffffffffffffffffffffffffffffffffff82169050919050565b60006118a082611875565b9050919050565b6118b081611895565b81146118bb57600080fd5b50565b6000813590506118cd816118a7565b92915050565b6000819050919050565b6118e6816118d3565b81146118f157600080fd5b50565b600081359050611903816118dd565b92915050565b600080604083850312156119205761191f611870565b5b600061192e858286016118be565b925050602061193f858286016118f4565b9150509250929050565b60008115159050919050565b61195e81611949565b82525050565b60006020820190506119796000830184611955565b92915050565b611988816118d3565b82525050565b60006020820190506119a3600083018461197f565b92915050565b6000806000606084860312156119c2576119c1611870565b5b60006119d0868287016118be565b93505060206119e1868287016118be565b92505060406119f2868287016118f4565b9150509250925092565b600060208284031215611a1257611a11611870565b5b6000611a20848285016118f4565b91505092915050565b600060ff82169050919050565b611a3f81611a29565b82525050565b6000602082019050611a5a6000830184611a36565b92915050565b600060208284031215611a7657611a75611870565b5b6000611a84848285016118be565b91505092915050565b611a9681611895565b82525050565b6000602082019050611ab16000830184611a8d565b92915050565b60008060408385031215611ace57611acd611870565b5b6000611adc858286016118be565b9250506020611aed858286016118be565b9150509250929050565b7f4e487b7100000000000000000000000000000000000000000000000000000000600052602260045260246000fd5b60006002820490506001821680611b3e57607f821691505b602082108103611b5157611b50611af7565b5b50919050565b7f4c756279436f696e3a205461782063616e2774206265206e6567617469766500600082015250565b6000611b8d601f836117c9565b9150611b9882611b57565b602082019050919050565b60006020820190508181036000830152611bbc81611b80565b9050919050565b7f4e487b7100000000000000000000000000000000000000000000000000000000600052601160045260246000fd5b6000611bfd826118d3565b9150611c08836118d3565b9250828201905080821115611c2057611c1f611bc3565b5b92915050565b7f45524332303a2064656372656173656420616c6c6f77616e63652062656c6f7760008201527f207a65726f000000000000000000000000000000000000000000000000000000602082015250565b6000611c826025836117c9565b9150611c8d82611c26565b604082019050919050565b60006020820190508181036000830152611cb181611c75565b9050919050565b7f4c756279436f696e3a20596f75206e65656420746f20776169742061206d6f6e60008201527f7468206265666f726520646f6e6174696e6720616761696e0000000000000000602082015250565b6000611d146038836117c9565b9150611d1f82611cb8565b604082019050919050565b60006020820190508181036000830152611d4381611d07565b9050919050565b7f4c756279436f696e3a20596f752063616e20646f6e6174652061206d6178696d60008201527f756d206f66203120657468657200000000000000000000000000000000000000602082015250565b6000611da6602d836117c9565b9150611db182611d4a565b604082019050919050565b60006020820190508181036000830152611dd581611d99565b9050919050565b7f4f776e61626c653a206e6577206f776e657220697320746865207a65726f206160008201527f6464726573730000000000000000000000000000000000000000000000000000602082015250565b6000611e386026836117c9565b9150611e4382611ddc565b604082019050919050565b60006020820190508181036000830152611e6781611e2b565b9050919050565b7f45524332303a20617070726f76652066726f6d20746865207a65726f2061646460008201527f7265737300000000000000000000000000000000000000000000000000000000602082015250565b6000611eca6024836117c9565b9150611ed582611e6e565b604082019050919050565b60006020820190508181036000830152611ef981611ebd565b9050919050565b7f45524332303a20617070726f766520746f20746865207a65726f20616464726560008201527f7373000000000000000000000000000000000000000000000000000000000000602082015250565b6000611f5c6022836117c9565b9150611f6782611f00565b604082019050919050565b60006020820190508181036000830152611f8b81611f4f565b9050919050565b7f45524332303a20696e73756666696369656e7420616c6c6f77616e6365000000600082015250565b6000611fc8601d836117c9565b9150611fd382611f92565b602082019050919050565b60006020820190508181036000830152611ff781611fbb565b9050919050565b7f45524332303a207472616e736665722066726f6d20746865207a65726f20616460008201527f6472657373000000000000000000000000000000000000000000000000000000602082015250565b600061205a6025836117c9565b915061206582611ffe565b604082019050919050565b600060208201905081810360008301526120898161204d565b9050919050565b7f45524332303a207472616e7366657220746f20746865207a65726f206164647260008201527f6573730000000000000000000000000000000000000000000000000000000000602082015250565b60006120ec6023836117c9565b91506120f782612090565b604082019050919050565b6000602082019050818103600083015261211b816120df565b9050919050565b7f45524332303a207472616e7366657220616d6f756e742065786365656473206260008201527f616c616e63650000000000000000000000000000000000000000000000000000602082015250565b600061217e6026836117c9565b915061218982612122565b604082019050919050565b600060208201905081810360008301526121ad81612171565b9050919050565b60006121bf826118d3565b91506121ca836118d3565b92508282039050818111156121e2576121e1611bc3565b5b92915050565b7f4f776e61626c653a2063616c6c6572206973206e6f7420746865206f776e6572600082015250565b600061221e6020836117c9565b9150612229826121e8565b602082019050919050565b6000602082019050818103600083015261224d81612211565b9050919050565b7f4e487b7100000000000000000000000000000000000000000000000000000000600052601260045260246000fd5b600061228e826118d3565b9150612299836118d3565b9250826122a9576122a8612254565b5b828204905092915050565b60006122bf826118d3565b91506122ca836118d3565b9250826122da576122d9612254565b5b828206905092915050565b60006122f0826118d3565b91506122fb836118d3565b9250828202612309816118d3565b915082820484148315176123205761231f611bc3565b5b5092915050565b7f5061757361626c653a206e6f7420706175736564000000000000000000000000600082015250565b600061235d6014836117c9565b915061236882612327565b602082019050919050565b6000602082019050818103600083015261238c81612350565b9050919050565b7f5061757361626c653a2070617573656400000000000000000000000000000000600082015250565b60006123c96010836117c9565b91506123d482612393565b602082019050919050565b600060208201905081810360008301526123f8816123bc565b9050919050565b6000819050919050565b6000612414826123ff565b915061241f836123ff565b925082820390508181126000841216828213600085121516171561244657612445611bc3565b5b92915050565b6000612457826123ff565b9150612462836123ff565b92508261247257612471612254565b5b600160000383147f8000000000000000000000000000000000000000000000000000000000000000831416156124ab576124aa611bc3565b5b828205905092915050565b60006124c1826123ff565b91506124cc836123ff565b9250828201905082811215600083121683821260008412151617156124f4576124f3611bc3565b5b92915050565b6000612505826123ff565b9150612510836123ff565b925082820261251e816123ff565b91507f8000000000000000000000000000000000000000000000000000000000000000841460008412161561255657612555611bc3565b5b828205841483151761256b5761256a611bc3565b5b509291505056fea264697066735822122071017cf7466dc00b72363285fdc7ad5d8911bd201750f288cc9111ef11e8fcdb64736f6c63430008110033",
  "immutableReferences": {},
  "source": "// SPDX-License-Identifier: MIT\npragma solidity 0.8.17;\n\nimport \"@openzeppelin/contracts/token/ERC20/ERC20.sol\";\nimport \"@openzeppelin/contracts/security/Pausable.sol\";\nimport \"@openzeppelin/contracts/access/Ownable.sol\";\nimport \"@quant-finance/solidity-datetime/contracts/DateTime.sol\";\n\ncontract LubyCoin is ERC20, Ownable, Pausable {\n    using DateTime for uint256;\n\n    uint256 _tax = 10000;\n    mapping(address => bool) private _vips;\n    mapping(address => uint256) private _lastTransaction;\n\n    constructor(uint256 _initialSupply) ERC20(\"LubyCoin\", \"LBC\") {\n        _mint(_msgSender(), _initialSupply);\n    }\n\n    function decimals() public pure override returns (uint8) {\n        return 3;\n    }\n\n    modifier canDonate(address donor) {\n        uint256 lastDonorTransaction = _lastTransaction[donor];\n        require(\n            (lastDonorTransaction.addMonths(1)) <= block.timestamp,\n            \"LubyCoin: You need to wait a month before donating again\"\n        );\n        require(\n            msg.value <= 1 ether,\n            \"LubyCoin: You can donate a maximum of 1 ether\"\n        );\n        _;\n    }\n\n    function pause() public onlyOwner {\n        _pause();\n    }\n\n    function unpause() public onlyOwner {\n        _unpause();\n    }\n\n    function makeVip(address _newVip) public onlyOwner {\n        _vips[_newVip] = true;\n    }\n\n    function setTax(uint256 _newTax) public onlyOwner {\n        require(_newTax >= 0, \"LubyCoin: Tax can't be negative\");\n        _tax = _newTax;\n    }\n\n    function _calculateFee(uint256 amount) internal view returns (uint256) {\n        uint256 fee = (amount * _tax) / 100000;\n        return fee;\n    }\n\n    function _chargeFeeAndReturnNewAmount(uint256 amount)\n        internal\n        returns (uint256)\n    {\n        uint256 fee = _calculateFee(amount);\n        transfer(address(this), fee);\n        amount = amount - fee;\n        return amount;\n    }\n\n    function transferTo(address to, uint256 amount) public returns (bool) {\n        if (!_vips[_msgSender()]) {\n            amount = _chargeFeeAndReturnNewAmount(amount);\n        }\n\n        return transfer(to, amount);\n    }\n\n    function donate(address to, uint256 amount)\n        public\n        payable\n        canDonate(_msgSender())\n        returns (bool)\n    {\n        if (!_vips[_msgSender()]) {\n            amount = _chargeFeeAndReturnNewAmount(amount);\n        }\n\n        return transfer(to, amount);\n    }\n\n    function withdrawAll() internal onlyOwner {\n        transfer(_msgSender(), balanceOf(address(this)));\n    }\n}\n",
  "sourcePath": "/Users/brenovergilio/Documents/labluby/blockchain/contracts/LubyCoin.sol",
  "compiler": {
    "name": "solc",
    "version": "0.8.17+commit.8df45f5f.Emscripten.clang"
  },
  "schemaVersion": "3.4.10",
  "updatedAt": "2022-09-22T13:38:57.781Z",
  "devdoc": {
    "kind": "dev",
    "methods": {
      "allowance(address,address)": {
        "details": "See {IERC20-allowance}."
      },
      "approve(address,uint256)": {
        "details": "See {IERC20-approve}. NOTE: If `amount` is the maximum `uint256`, the allowance is not updated on `transferFrom`. This is semantically equivalent to an infinite approval. Requirements: - `spender` cannot be the zero address."
      },
      "balanceOf(address)": {
        "details": "See {IERC20-balanceOf}."
      },
      "decimals()": {
        "details": "Returns the number of decimals used to get its user representation. For example, if `decimals` equals `2`, a balance of `505` tokens should be displayed to a user as `5.05` (`505 / 10 ** 2`). Tokens usually opt for a value of 18, imitating the relationship between Ether and Wei. This is the value {ERC20} uses, unless this function is overridden; NOTE: This information is only used for _display_ purposes: it in no way affects any of the arithmetic of the contract, including {IERC20-balanceOf} and {IERC20-transfer}."
      },
      "decreaseAllowance(address,uint256)": {
        "details": "Atomically decreases the allowance granted to `spender` by the caller. This is an alternative to {approve} that can be used as a mitigation for problems described in {IERC20-approve}. Emits an {Approval} event indicating the updated allowance. Requirements: - `spender` cannot be the zero address. - `spender` must have allowance for the caller of at least `subtractedValue`."
      },
      "increaseAllowance(address,uint256)": {
        "details": "Atomically increases the allowance granted to `spender` by the caller. This is an alternative to {approve} that can be used as a mitigation for problems described in {IERC20-approve}. Emits an {Approval} event indicating the updated allowance. Requirements: - `spender` cannot be the zero address."
      },
      "name()": {
        "details": "Returns the name of the token."
      },
      "owner()": {
        "details": "Returns the address of the current owner."
      },
      "paused()": {
        "details": "Returns true if the contract is paused, and false otherwise."
      },
      "renounceOwnership()": {
        "details": "Leaves the contract without owner. It will not be possible to call `onlyOwner` functions anymore. Can only be called by the current owner. NOTE: Renouncing ownership will leave the contract without an owner, thereby removing any functionality that is only available to the owner."
      },
      "symbol()": {
        "details": "Returns the symbol of the token, usually a shorter version of the name."
      },
      "totalSupply()": {
        "details": "See {IERC20-totalSupply}."
      },
      "transfer(address,uint256)": {
        "details": "See {IERC20-transfer}. Requirements: - `to` cannot be the zero address. - the caller must have a balance of at least `amount`."
      },
      "transferFrom(address,address,uint256)": {
        "details": "See {IERC20-transferFrom}. Emits an {Approval} event indicating the updated allowance. This is not required by the EIP. See the note at the beginning of {ERC20}. NOTE: Does not update the allowance if the current allowance is the maximum `uint256`. Requirements: - `from` and `to` cannot be the zero address. - `from` must have a balance of at least `amount`. - the caller must have allowance for ``from``'s tokens of at least `amount`."
      },
      "transferOwnership(address)": {
        "details": "Transfers ownership of the contract to a new account (`newOwner`). Can only be called by the current owner."
      }
    },
    "version": 1
  },
  "userdoc": {
    "kind": "user",
    "methods": {},
    "version": 1
  }
}