{
  "contractName": "LubyCoin",
  "abi": [
    {
      "inputs": [
        {
          "internalType": "uint256",
          "name": "_initialSupply",
          "type": "uint256"
        }
      ],
      "stateMutability": "nonpayable",
      "type": "constructor"
    },
    {
      "anonymous": false,
      "inputs": [
        {
          "indexed": true,
          "internalType": "address",
          "name": "owner",
          "type": "address"
        },
        {
          "indexed": true,
          "internalType": "address",
          "name": "spender",
          "type": "address"
        },
        {
          "indexed": false,
          "internalType": "uint256",
          "name": "value",
          "type": "uint256"
        }
      ],
      "name": "Approval",
      "type": "event"
    },
    {
      "anonymous": false,
      "inputs": [
        {
          "indexed": true,
          "internalType": "address",
          "name": "previousOwner",
          "type": "address"
        },
        {
          "indexed": true,
          "internalType": "address",
          "name": "newOwner",
          "type": "address"
        }
      ],
      "name": "OwnershipTransferred",
      "type": "event"
    },
    {
      "anonymous": false,
      "inputs": [
        {
          "indexed": false,
          "internalType": "address",
          "name": "account",
          "type": "address"
        }
      ],
      "name": "Paused",
      "type": "event"
    },
    {
      "anonymous": false,
      "inputs": [
        {
          "indexed": true,
          "internalType": "address",
          "name": "from",
          "type": "address"
        },
        {
          "indexed": true,
          "internalType": "address",
          "name": "to",
          "type": "address"
        },
        {
          "indexed": false,
          "internalType": "uint256",
          "name": "value",
          "type": "uint256"
        }
      ],
      "name": "Transfer",
      "type": "event"
    },
    {
      "anonymous": false,
      "inputs": [
        {
          "indexed": false,
          "internalType": "address",
          "name": "account",
          "type": "address"
        }
      ],
      "name": "Unpaused",
      "type": "event"
    },
    {
      "inputs": [
        {
          "internalType": "address",
          "name": "owner",
          "type": "address"
        },
        {
          "internalType": "address",
          "name": "spender",
          "type": "address"
        }
      ],
      "name": "allowance",
      "outputs": [
        {
          "internalType": "uint256",
          "name": "",
          "type": "uint256"
        }
      ],
      "stateMutability": "view",
      "type": "function"
    },
    {
      "inputs": [
        {
          "internalType": "address",
          "name": "spender",
          "type": "address"
        },
        {
          "internalType": "uint256",
          "name": "amount",
          "type": "uint256"
        }
      ],
      "name": "approve",
      "outputs": [
        {
          "internalType": "bool",
          "name": "",
          "type": "bool"
        }
      ],
      "stateMutability": "nonpayable",
      "type": "function"
    },
    {
      "inputs": [
        {
          "internalType": "address",
          "name": "account",
          "type": "address"
        }
      ],
      "name": "balanceOf",
      "outputs": [
        {
          "internalType": "uint256",
          "name": "",
          "type": "uint256"
        }
      ],
      "stateMutability": "view",
      "type": "function"
    },
    {
      "inputs": [
        {
          "internalType": "address",
          "name": "spender",
          "type": "address"
        },
        {
          "internalType": "uint256",
          "name": "addedValue",
          "type": "uint256"
        }
      ],
      "name": "increaseAllowance",
      "outputs": [
        {
          "internalType": "bool",
          "name": "",
          "type": "bool"
        }
      ],
      "stateMutability": "nonpayable",
      "type": "function"
    },
    {
      "inputs": [],
      "name": "name",
      "outputs": [
        {
          "internalType": "string",
          "name": "",
          "type": "string"
        }
      ],
      "stateMutability": "view",
      "type": "function"
    },
    {
      "inputs": [],
      "name": "owner",
      "outputs": [
        {
          "internalType": "address",
          "name": "",
          "type": "address"
        }
      ],
      "stateMutability": "view",
      "type": "function"
    },
    {
      "inputs": [],
      "name": "paused",
      "outputs": [
        {
          "internalType": "bool",
          "name": "",
          "type": "bool"
        }
      ],
      "stateMutability": "view",
      "type": "function"
    },
    {
      "inputs": [],
      "name": "renounceOwnership",
      "outputs": [],
      "stateMutability": "nonpayable",
      "type": "function"
    },
    {
      "inputs": [],
      "name": "symbol",
      "outputs": [
        {
          "internalType": "string",
          "name": "",
          "type": "string"
        }
      ],
      "stateMutability": "view",
      "type": "function"
    },
    {
      "inputs": [],
      "name": "totalSupply",
      "outputs": [
        {
          "internalType": "uint256",
          "name": "",
          "type": "uint256"
        }
      ],
      "stateMutability": "view",
      "type": "function"
    },
    {
      "inputs": [
        {
          "internalType": "address",
          "name": "to",
          "type": "address"
        },
        {
          "internalType": "uint256",
          "name": "amount",
          "type": "uint256"
        }
      ],
      "name": "transfer",
      "outputs": [
        {
          "internalType": "bool",
          "name": "",
          "type": "bool"
        }
      ],
      "stateMutability": "nonpayable",
      "type": "function"
    },
    {
      "inputs": [
        {
          "internalType": "address",
          "name": "from",
          "type": "address"
        },
        {
          "internalType": "address",
          "name": "to",
          "type": "address"
        },
        {
          "internalType": "uint256",
          "name": "amount",
          "type": "uint256"
        }
      ],
      "name": "transferFrom",
      "outputs": [
        {
          "internalType": "bool",
          "name": "",
          "type": "bool"
        }
      ],
      "stateMutability": "nonpayable",
      "type": "function"
    },
    {
      "inputs": [
        {
          "internalType": "address",
          "name": "newOwner",
          "type": "address"
        }
      ],
      "name": "transferOwnership",
      "outputs": [],
      "stateMutability": "nonpayable",
      "type": "function"
    },
    {
      "inputs": [],
      "name": "decimals",
      "outputs": [
        {
          "internalType": "uint8",
          "name": "",
          "type": "uint8"
        }
      ],
      "stateMutability": "pure",
      "type": "function"
    },
    {
      "inputs": [],
      "name": "pause",
      "outputs": [],
      "stateMutability": "nonpayable",
      "type": "function"
    },
    {
      "inputs": [],
      "name": "unpause",
      "outputs": [],
      "stateMutability": "nonpayable",
      "type": "function"
    },
    {
      "inputs": [
        {
          "internalType": "address",
          "name": "_newVip",
          "type": "address"
        }
      ],
      "name": "makeVip",
      "outputs": [],
      "stateMutability": "nonpayable",
      "type": "function"
    },
    {
      "inputs": [
        {
          "internalType": "uint256",
          "name": "_newTax",
          "type": "uint256"
        }
      ],
      "name": "setTax",
      "outputs": [],
      "stateMutability": "nonpayable",
      "type": "function"
    },
    {
      "inputs": [
        {
          "internalType": "address",
          "name": "to",
          "type": "address"
        },
        {
          "internalType": "uint256",
          "name": "amount",
          "type": "uint256"
        }
      ],
      "name": "transferTo",
      "outputs": [
        {
          "internalType": "bool",
          "name": "",
          "type": "bool"
        }
      ],
      "stateMutability": "nonpayable",
      "type": "function"
    },
    {
      "inputs": [
        {
          "internalType": "address",
          "name": "to",
          "type": "address"
        },
        {
          "internalType": "uint256",
          "name": "amount",
          "type": "uint256"
        }
      ],
      "name": "donate",
      "outputs": [
        {
          "internalType": "bool",
          "name": "",
          "type": "bool"
        }
      ],
      "stateMutability": "payable",
      "type": "function"
    },
    {
      "inputs": [],
      "name": "withdrawAll",
      "outputs": [],
      "stateMutability": "nonpayable",
      "type": "function"
    },
    {
      "inputs": [
        {
          "internalType": "address",
          "name": "spender",
          "type": "address"
        },
        {
          "internalType": "uint256",
          "name": "subtractedValue",
          "type": "uint256"
        }
      ],
      "name": "decreaseAllowance",
      "outputs": [
        {
          "internalType": "bool",
          "name": "",
          "type": "bool"
        }
      ],
      "stateMutability": "nonpayable",
      "type": "function"
    }
  ],
  "bytecode": "0x60806040526127106007553480156200001757600080fd5b5060405162002f6138038062002f6183398181016040528101906200003d91906200045b565b6040518060400160405280600881526020017f4c756279436f696e0000000000000000000000000000000000000000000000008152506040518060400160405280600381526020017f4c424300000000000000000000000000000000000000000000000000000000008152508160039081620000ba9190620006fd565b508060049081620000cc9190620006fd565b505050620000ef620000e36200013260201b60201c565b6200013a60201b60201c565b6000600560146101000a81548160ff0219169083151502179055506200012b6200011e6200013260201b60201c565b826200020060201b60201c565b50620008ff565b600033905090565b6000600560009054906101000a900473ffffffffffffffffffffffffffffffffffffffff16905081600560006101000a81548173ffffffffffffffffffffffffffffffffffffffff021916908373ffffffffffffffffffffffffffffffffffffffff1602179055508173ffffffffffffffffffffffffffffffffffffffff168173ffffffffffffffffffffffffffffffffffffffff167f8be0079c531659141344cd1fd0a4f28419497f9722a3daafe3b4186f6b6457e060405160405180910390a35050565b600073ffffffffffffffffffffffffffffffffffffffff168273ffffffffffffffffffffffffffffffffffffffff160362000272576040517f08c379a0000000000000000000000000000000000000000000000000000000008152600401620002699062000845565b60405180910390fd5b62000286600083836200037860201b60201c565b80600260008282546200029a919062000896565b92505081905550806000808473ffffffffffffffffffffffffffffffffffffffff1673ffffffffffffffffffffffffffffffffffffffff1681526020019081526020016000206000828254620002f1919062000896565b925050819055508173ffffffffffffffffffffffffffffffffffffffff16600073ffffffffffffffffffffffffffffffffffffffff167fddf252ad1be2c89b69c2b068fc378daa952ba7f163c4a11628f55a4df523b3ef83604051620003589190620008e2565b60405180910390a362000374600083836200037d60201b60201c565b5050565b505050565b620003908383836200039560201b60201c565b505050565b80600660008573ffffffffffffffffffffffffffffffffffffffff1673ffffffffffffffffffffffffffffffffffffffff16815260200190815260200160002060008473ffffffffffffffffffffffffffffffffffffffff1673ffffffffffffffffffffffffffffffffffffffff16815260200190815260200160002081905550505050565b600080fd5b6000819050919050565b620004358162000420565b81146200044157600080fd5b50565b60008151905062000455816200042a565b92915050565b6000602082840312156200047457620004736200041b565b5b6000620004848482850162000444565b91505092915050565b600081519050919050565b7f4e487b7100000000000000000000000000000000000000000000000000000000600052604160045260246000fd5b7f4e487b7100000000000000000000000000000000000000000000000000000000600052602260045260246000fd5b600060028204905060018216806200050f57607f821691505b602082108103620005255762000524620004c7565b5b50919050565b60008190508160005260206000209050919050565b60006020601f8301049050919050565b600082821b905092915050565b6000600883026200058f7fffffffffffffffffffffffffffffffffffffffffffffffffffffffffffffffff8262000550565b6200059b868362000550565b95508019841693508086168417925050509392505050565b6000819050919050565b6000620005de620005d8620005d28462000420565b620005b3565b62000420565b9050919050565b6000819050919050565b620005fa83620005bd565b620006126200060982620005e5565b8484546200055d565b825550505050565b600090565b620006296200061a565b62000636818484620005ef565b505050565b5b818110156200065e57620006526000826200061f565b6001810190506200063c565b5050565b601f821115620006ad5762000677816200052b565b620006828462000540565b8101602085101562000692578190505b620006aa620006a18562000540565b8301826200063b565b50505b505050565b600082821c905092915050565b6000620006d260001984600802620006b2565b1980831691505092915050565b6000620006ed8383620006bf565b9150826002028217905092915050565b62000708826200048d565b67ffffffffffffffff81111562000724576200072362000498565b5b620007308254620004f6565b6200073d82828562000662565b600060209050601f83116001811462000775576000841562000760578287015190505b6200076c8582620006df565b865550620007dc565b601f19841662000785866200052b565b60005b82811015620007af5784890151825560018201915060208501945060208101905062000788565b86831015620007cf5784890151620007cb601f891682620006bf565b8355505b6001600288020188555050505b505050505050565b600082825260208201905092915050565b7f45524332303a206d696e7420746f20746865207a65726f206164647265737300600082015250565b60006200082d601f83620007e4565b91506200083a82620007f5565b602082019050919050565b6000602082019050818103600083015262000860816200081e565b9050919050565b7f4e487b7100000000000000000000000000000000000000000000000000000000600052601160045260246000fd5b6000620008a38262000420565b9150620008b08362000420565b9250828201905080821115620008cb57620008ca62000867565b5b92915050565b620008dc8162000420565b82525050565b6000602082019050620008f96000830184620008d1565b92915050565b612652806200090f6000396000f3fe6080604052600436106101355760003560e01c806370a08231116100ab57806395d89b411161006f57806395d89b41146103f0578063a457c2d71461041b578063a9059cbb14610458578063dd62ed3e14610495578063e69d849d146104d2578063f2fde38b1461050257610135565b806370a0823114610343578063715018a6146103805780638456cb5914610397578063853828b6146103ae5780638da5cb5b146103c557610135565b80632e5bb6ff116100fd5780632e5bb6ff14610247578063313ce56714610270578063395093511461029b5780633f4ba83a146102d857806349475ebb146102ef5780635c975abb1461031857610135565b806306fdde031461013a578063095ea7b31461016557806318160ddd146101a257806323b872dd146101cd5780632ccb1b301461020a575b600080fd5b34801561014657600080fd5b5061014f61052b565b60405161015c919061191e565b60405180910390f35b34801561017157600080fd5b5061018c600480360381019061018791906119d9565b6105bd565b6040516101999190611a34565b60405180910390f35b3480156101ae57600080fd5b506101b76105e0565b6040516101c49190611a5e565b60405180910390f35b3480156101d957600080fd5b506101f460048036038101906101ef9190611a79565b6105ea565b6040516102019190611a34565b60405180910390f35b34801561021657600080fd5b50610231600480360381019061022c91906119d9565b610619565b60405161023e9190611a34565b60405180910390f35b34801561025357600080fd5b5061026e60048036038101906102699190611acc565b610699565b005b34801561027c57600080fd5b506102856106f7565b6040516102929190611b15565b60405180910390f35b3480156102a757600080fd5b506102c260048036038101906102bd91906119d9565b610700565b6040516102cf9190611a34565b60405180910390f35b3480156102e457600080fd5b506102ed610737565b005b3480156102fb57600080fd5b5061031660048036038101906103119190611b30565b610749565b005b34801561032457600080fd5b5061032d6107b4565b60405161033a9190611a34565b60405180910390f35b34801561034f57600080fd5b5061036a60048036038101906103659190611b30565b6107cb565b6040516103779190611a5e565b60405180910390f35b34801561038c57600080fd5b50610395610813565b005b3480156103a357600080fd5b506103ac610827565b005b3480156103ba57600080fd5b506103c3610839565b005b3480156103d157600080fd5b506103da610865565b6040516103e79190611b6c565b60405180910390f35b3480156103fc57600080fd5b5061040561088f565b604051610412919061191e565b60405180910390f35b34801561042757600080fd5b50610442600480360381019061043d91906119d9565b610921565b60405161044f9190611a34565b60405180910390f35b34801561046457600080fd5b5061047f600480360381019061047a91906119d9565b610969565b60405161048c9190611a34565b60405180910390f35b3480156104a157600080fd5b506104bc60048036038101906104b79190611b87565b61098c565b6040516104c99190611a5e565b60405180910390f35b6104ec60048036038101906104e791906119d9565b610a13565b6040516104f99190611a34565b60405180910390f35b34801561050e57600080fd5b5061052960048036038101906105249190611b30565b610b82565b005b60606003805461053a90611bf6565b80601f016020809104026020016040519081016040528092919081815260200182805461056690611bf6565b80156105b35780601f10610588576101008083540402835291602001916105b3565b820191906000526020600020905b81548152906001019060200180831161059657829003601f168201915b5050505050905090565b6000806105c8610c05565b90506105d5818585610c0d565b600191505092915050565b6000600254905090565b6000806105f5610c05565b9050610602858285610dd6565b61060d858585610e62565b60019150509392505050565b60006106236110e1565b6008600061062f610c05565b73ffffffffffffffffffffffffffffffffffffffff1673ffffffffffffffffffffffffffffffffffffffff16815260200190815260200160002060009054906101000a900460ff16610687576106848261112b565b91505b6106918383610969565b905092915050565b6106a16110e1565b6106a961115b565b60008110156106ed576040517f08c379a00000000000000000000000000000000000000000000000000000000081526004016106e490611c73565b60405180910390fd5b8060078190555050565b60006003905090565b60008061070b610c05565b905061072c81858561071d858961098c565b6107279190611cc2565b610c0d565b600191505092915050565b61073f61115b565b6107476111d9565b565b6107516110e1565b61075961115b565b6001600860008373ffffffffffffffffffffffffffffffffffffffff1673ffffffffffffffffffffffffffffffffffffffff16815260200190815260200160002060006101000a81548160ff02191690831515021790555050565b6000600560149054906101000a900460ff16905090565b60008060008373ffffffffffffffffffffffffffffffffffffffff1673ffffffffffffffffffffffffffffffffffffffff168152602001908152602001600020549050919050565b61081b61115b565b610825600061123c565b565b61082f61115b565b610837611302565b565b6108416110e1565b61084961115b565b610862610854610c05565b61085d306107cb565b610969565b50565b6000600560009054906101000a900473ffffffffffffffffffffffffffffffffffffffff16905090565b60606004805461089e90611bf6565b80601f01602080910402602001604051908101604052809291908181526020018280546108ca90611bf6565b80156109175780601f106108ec57610100808354040283529160200191610917565b820191906000526020600020905b8154815290600101906020018083116108fa57829003601f168201915b5050505050905090565b600080610963576040517f08c379a000000000000000000000000000000000000000000000000000000000815260040161095a90611d42565b60405180910390fd5b92915050565b600080610974610c05565b9050610981818585610e62565b600191505092915050565b6000600160008473ffffffffffffffffffffffffffffffffffffffff1673ffffffffffffffffffffffffffffffffffffffff16815260200190815260200160002060008373ffffffffffffffffffffffffffffffffffffffff1673ffffffffffffffffffffffffffffffffffffffff16815260200190815260200160002054905092915050565b6000610a1d6110e1565b610a25610c05565b6000600960008373ffffffffffffffffffffffffffffffffffffffff1673ffffffffffffffffffffffffffffffffffffffff16815260200190815260200160002054905042610a7e60018361136590919063ffffffff16565b1115610abf576040517f08c379a0000000000000000000000000000000000000000000000000000000008152600401610ab690611dd4565b60405180910390fd5b670de0b6b3a7640000341115610b0a576040517f08c379a0000000000000000000000000000000000000000000000000000000008152600401610b0190611e66565b60405180910390fd5b60086000610b16610c05565b73ffffffffffffffffffffffffffffffffffffffff1673ffffffffffffffffffffffffffffffffffffffff16815260200190815260200160002060009054906101000a900460ff16610b6e57610b6b8461112b565b93505b610b788585610969565b9250505092915050565b610b8a61115b565b600073ffffffffffffffffffffffffffffffffffffffff168173ffffffffffffffffffffffffffffffffffffffff1603610bf9576040517f08c379a0000000000000000000000000000000000000000000000000000000008152600401610bf090611ef8565b60405180910390fd5b610c028161123c565b50565b600033905090565b600073ffffffffffffffffffffffffffffffffffffffff168373ffffffffffffffffffffffffffffffffffffffff1603610c7c576040517f08c379a0000000000000000000000000000000000000000000000000000000008152600401610c7390611f8a565b60405180910390fd5b600073ffffffffffffffffffffffffffffffffffffffff168273ffffffffffffffffffffffffffffffffffffffff1603610ceb576040517f08c379a0000000000000000000000000000000000000000000000000000000008152600401610ce29061201c565b60405180910390fd5b80600160008573ffffffffffffffffffffffffffffffffffffffff1673ffffffffffffffffffffffffffffffffffffffff16815260200190815260200160002060008473ffffffffffffffffffffffffffffffffffffffff1673ffffffffffffffffffffffffffffffffffffffff168152602001908152602001600020819055508173ffffffffffffffffffffffffffffffffffffffff168373ffffffffffffffffffffffffffffffffffffffff167f8c5be1e5ebec7d5bd14f71427d1e84f3dd0314c0f7b2291e5b200ac8c7c3b92583604051610dc99190611a5e565b60405180910390a3505050565b6000610de2848461098c565b90507fffffffffffffffffffffffffffffffffffffffffffffffffffffffffffffffff8114610e5c5781811015610e4e576040517f08c379a0000000000000000000000000000000000000000000000000000000008152600401610e4590612088565b60405180910390fd5b610e5b8484848403610c0d565b5b50505050565b600073ffffffffffffffffffffffffffffffffffffffff168373ffffffffffffffffffffffffffffffffffffffff1603610ed1576040517f08c379a0000000000000000000000000000000000000000000000000000000008152600401610ec89061211a565b60405180910390fd5b600073ffffffffffffffffffffffffffffffffffffffff168273ffffffffffffffffffffffffffffffffffffffff1603610f40576040517f08c379a0000000000000000000000000000000000000000000000000000000008152600401610f37906121ac565b60405180910390fd5b610f4b838383611448565b60008060008573ffffffffffffffffffffffffffffffffffffffff1673ffffffffffffffffffffffffffffffffffffffff16815260200190815260200160002054905081811015610fd1576040517f08c379a0000000000000000000000000000000000000000000000000000000008152600401610fc89061223e565b60405180910390fd5b8181036000808673ffffffffffffffffffffffffffffffffffffffff1673ffffffffffffffffffffffffffffffffffffffff16815260200190815260200160002081905550816000808573ffffffffffffffffffffffffffffffffffffffff1673ffffffffffffffffffffffffffffffffffffffff16815260200190815260200160002060008282546110649190611cc2565b925050819055508273ffffffffffffffffffffffffffffffffffffffff168473ffffffffffffffffffffffffffffffffffffffff167fddf252ad1be2c89b69c2b068fc378daa952ba7f163c4a11628f55a4df523b3ef846040516110c89190611a5e565b60405180910390a36110db84848461144d565b50505050565b6110e96107b4565b15611129576040517f08c379a0000000000000000000000000000000000000000000000000000000008152600401611120906122aa565b60405180910390fd5b565b6000806111378361145d565b90506111433082610969565b50808361115091906122ca565b925082915050919050565b611163610c05565b73ffffffffffffffffffffffffffffffffffffffff16611181610865565b73ffffffffffffffffffffffffffffffffffffffff16146111d7576040517f08c379a00000000000000000000000000000000000000000000000000000000081526004016111ce9061234a565b60405180910390fd5b565b6111e1611487565b6000600560146101000a81548160ff0219169083151502179055507f5db9ee0a495bf2e6ff9c91a7834c1ba4fdd244a5e8aa4e537bd38aeae4b073aa611225610c05565b6040516112329190611b6c565b60405180910390a1565b6000600560009054906101000a900473ffffffffffffffffffffffffffffffffffffffff16905081600560006101000a81548173ffffffffffffffffffffffffffffffffffffffff021916908373ffffffffffffffffffffffffffffffffffffffff1602179055508173ffffffffffffffffffffffffffffffffffffffff168173ffffffffffffffffffffffffffffffffffffffff167f8be0079c531659141344cd1fd0a4f28419497f9722a3daafe3b4186f6b6457e060405160405180910390a35050565b61130a6110e1565b6001600560146101000a81548160ff0219169083151502179055507f62e78cea01bee320cd4e420270b5ea74000d11b0c9f74754ebdbfc544b05a25861134e610c05565b60405161135b9190611b6c565b60405180910390a1565b600080600080611382620151808761137d9190612399565b6114d0565b92509250925084826113949190611cc2565b9150600c6001836113a591906122ca565b6113af9190612399565b836113ba9190611cc2565b92506001600c6001846113cd91906122ca565b6113d791906123ca565b6113e19190611cc2565b915060006113ef84846115d5565b9050808211156113fd578091505b620151808761140c91906123ca565b6201518061141b868686611660565b61142591906123fb565b61142f9190611cc2565b94508685101561143e57600080fd5b5050505092915050565b505050565b6114588383836117bf565b505050565b600080620186a06007548461147291906123fb565b61147c9190612399565b905080915050919050565b61148f6107b4565b6114ce576040517f08c379a00000000000000000000000000000000000000000000000000000000081526004016114c590612489565b60405180910390fd5b565b600080600080849050600062253d8c62010bd98301019050600062023ab18260040281611500576114ff61236a565b5b059050600460038262023ab102018161151c5761151b61236a565b5b0582039150600062164b0960018401610fa0028161153d5761153c61236a565b5b059050601f6004826105b502816115575761155661236a565b5b058403019250600061098f84605002816115745761157361236a565b5b059050600060508261098f028161158e5761158d61236a565b5b0585039050600b82816115a4576115a361236a565b5b05945084600c0260028301039150848360318603606402010192508298508197508096505050505050509193909250565b600060018214806115e65750600382145b806115f15750600582145b806115fc5750600782145b806116075750600882145b806116125750600a82145b8061161d5750600c82145b1561162b57601f905061165a565b6002821461163c57601e9050611659565b61164583611845565b61165057601c611653565b601d5b60ff1690505b5b92915050565b60006107b284101561167157600080fd5b600084905060008490506000849050600062253d8c60046064600c600e8761169991906124b3565b6116a391906124f6565b611324886116b19190612560565b6116bb9190612560565b6116c591906124f6565b60036116d191906125a4565b6116db91906124f6565b600c80600c600e886116ed91906124b3565b6116f791906124f6565b61170191906125a4565b60028761170e91906124b3565b61171891906124b3565b61016f61172591906125a4565b61172f91906124f6565b6004600c600e8861174091906124b3565b61174a91906124f6565b6112c0896117589190612560565b6117629190612560565b6105b561176f91906125a4565b61177991906124f6565b617d4b8661178791906124b3565b6117919190612560565b61179b9190612560565b6117a591906124b3565b6117af91906124b3565b9050809450505050509392505050565b80600660008573ffffffffffffffffffffffffffffffffffffffff1673ffffffffffffffffffffffffffffffffffffffff16815260200190815260200160002060008473ffffffffffffffffffffffffffffffffffffffff1673ffffffffffffffffffffffffffffffffffffffff16815260200190815260200160002081905550505050565b60008060048361185591906123ca565b14801561186f5750600060648361186c91906123ca565b14155b80611887575060006101908361188591906123ca565b145b9050919050565b600081519050919050565b600082825260208201905092915050565b60005b838110156118c85780820151818401526020810190506118ad565b60008484015250505050565b6000601f19601f8301169050919050565b60006118f08261188e565b6118fa8185611899565b935061190a8185602086016118aa565b611913816118d4565b840191505092915050565b6000602082019050818103600083015261193881846118e5565b905092915050565b600080fd5b600073ffffffffffffffffffffffffffffffffffffffff82169050919050565b600061197082611945565b9050919050565b61198081611965565b811461198b57600080fd5b50565b60008135905061199d81611977565b92915050565b6000819050919050565b6119b6816119a3565b81146119c157600080fd5b50565b6000813590506119d3816119ad565b92915050565b600080604083850312156119f0576119ef611940565b5b60006119fe8582860161198e565b9250506020611a0f858286016119c4565b9150509250929050565b60008115159050919050565b611a2e81611a19565b82525050565b6000602082019050611a496000830184611a25565b92915050565b611a58816119a3565b82525050565b6000602082019050611a736000830184611a4f565b92915050565b600080600060608486031215611a9257611a91611940565b5b6000611aa08682870161198e565b9350506020611ab18682870161198e565b9250506040611ac2868287016119c4565b9150509250925092565b600060208284031215611ae257611ae1611940565b5b6000611af0848285016119c4565b91505092915050565b600060ff82169050919050565b611b0f81611af9565b82525050565b6000602082019050611b2a6000830184611b06565b92915050565b600060208284031215611b4657611b45611940565b5b6000611b548482850161198e565b91505092915050565b611b6681611965565b82525050565b6000602082019050611b816000830184611b5d565b92915050565b60008060408385031215611b9e57611b9d611940565b5b6000611bac8582860161198e565b9250506020611bbd8582860161198e565b9150509250929050565b7f4e487b7100000000000000000000000000000000000000000000000000000000600052602260045260246000fd5b60006002820490506001821680611c0e57607f821691505b602082108103611c2157611c20611bc7565b5b50919050565b7f4c756279436f696e3a205461782063616e2774206265206e6567617469766500600082015250565b6000611c5d601f83611899565b9150611c6882611c27565b602082019050919050565b60006020820190508181036000830152611c8c81611c50565b9050919050565b7f4e487b7100000000000000000000000000000000000000000000000000000000600052601160045260246000fd5b6000611ccd826119a3565b9150611cd8836119a3565b9250828201905080821115611cf057611cef611c93565b5b92915050565b7f4e6f7420696d706c656d656e7465640000000000000000000000000000000000600082015250565b6000611d2c600f83611899565b9150611d3782611cf6565b602082019050919050565b60006020820190508181036000830152611d5b81611d1f565b9050919050565b7f4c756279436f696e3a20596f75206e65656420746f20776169742061206d6f6e60008201527f7468206265666f726520646f6e6174696e6720616761696e0000000000000000602082015250565b6000611dbe603883611899565b9150611dc982611d62565b604082019050919050565b60006020820190508181036000830152611ded81611db1565b9050919050565b7f4c756279436f696e3a20596f752063616e20646f6e6174652061206d6178696d60008201527f756d206f66203120657468657200000000000000000000000000000000000000602082015250565b6000611e50602d83611899565b9150611e5b82611df4565b604082019050919050565b60006020820190508181036000830152611e7f81611e43565b9050919050565b7f4f776e61626c653a206e6577206f776e657220697320746865207a65726f206160008201527f6464726573730000000000000000000000000000000000000000000000000000602082015250565b6000611ee2602683611899565b9150611eed82611e86565b604082019050919050565b60006020820190508181036000830152611f1181611ed5565b9050919050565b7f45524332303a20617070726f76652066726f6d20746865207a65726f2061646460008201527f7265737300000000000000000000000000000000000000000000000000000000602082015250565b6000611f74602483611899565b9150611f7f82611f18565b604082019050919050565b60006020820190508181036000830152611fa381611f67565b9050919050565b7f45524332303a20617070726f766520746f20746865207a65726f20616464726560008201527f7373000000000000000000000000000000000000000000000000000000000000602082015250565b6000612006602283611899565b915061201182611faa565b604082019050919050565b6000602082019050818103600083015261203581611ff9565b9050919050565b7f45524332303a20696e73756666696369656e7420616c6c6f77616e6365000000600082015250565b6000612072601d83611899565b915061207d8261203c565b602082019050919050565b600060208201905081810360008301526120a181612065565b9050919050565b7f45524332303a207472616e736665722066726f6d20746865207a65726f20616460008201527f6472657373000000000000000000000000000000000000000000000000000000602082015250565b6000612104602583611899565b915061210f826120a8565b604082019050919050565b60006020820190508181036000830152612133816120f7565b9050919050565b7f45524332303a207472616e7366657220746f20746865207a65726f206164647260008201527f6573730000000000000000000000000000000000000000000000000000000000602082015250565b6000612196602383611899565b91506121a18261213a565b604082019050919050565b600060208201905081810360008301526121c581612189565b9050919050565b7f45524332303a207472616e7366657220616d6f756e742065786365656473206260008201527f616c616e63650000000000000000000000000000000000000000000000000000602082015250565b6000612228602683611899565b9150612233826121cc565b604082019050919050565b600060208201905081810360008301526122578161221b565b9050919050565b7f5061757361626c653a2070617573656400000000000000000000000000000000600082015250565b6000612294601083611899565b915061229f8261225e565b602082019050919050565b600060208201905081810360008301526122c381612287565b9050919050565b60006122d5826119a3565b91506122e0836119a3565b92508282039050818111156122f8576122f7611c93565b5b92915050565b7f4f776e61626c653a2063616c6c6572206973206e6f7420746865206f776e6572600082015250565b6000612334602083611899565b915061233f826122fe565b602082019050919050565b6000602082019050818103600083015261236381612327565b9050919050565b7f4e487b7100000000000000000000000000000000000000000000000000000000600052601260045260246000fd5b60006123a4826119a3565b91506123af836119a3565b9250826123bf576123be61236a565b5b828204905092915050565b60006123d5826119a3565b91506123e0836119a3565b9250826123f0576123ef61236a565b5b828206905092915050565b6000612406826119a3565b9150612411836119a3565b925082820261241f816119a3565b9150828204841483151761243657612435611c93565b5b5092915050565b7f5061757361626c653a206e6f7420706175736564000000000000000000000000600082015250565b6000612473601483611899565b915061247e8261243d565b602082019050919050565b600060208201905081810360008301526124a281612466565b9050919050565b6000819050919050565b60006124be826124a9565b91506124c9836124a9565b92508282039050818112600084121682821360008512151617156124f0576124ef611c93565b5b92915050565b6000612501826124a9565b915061250c836124a9565b92508261251c5761251b61236a565b5b600160000383147f80000000000000000000000000000000000000000000000000000000000000008314161561255557612554611c93565b5b828205905092915050565b600061256b826124a9565b9150612576836124a9565b92508282019050828112156000831216838212600084121516171561259e5761259d611c93565b5b92915050565b60006125af826124a9565b91506125ba836124a9565b92508282026125c8816124a9565b91507f80000000000000000000000000000000000000000000000000000000000000008414600084121615612600576125ff611c93565b5b828205841483151761261557612614611c93565b5b509291505056fea2646970667358221220cccebd3d291af75cba9cbc9fac0f9b62b2eaaf72fed563b9226c0e673fad773a64736f6c63430008110033",
  "immutableReferences": {},
  "source": "// SPDX-License-Identifier: MIT\npragma solidity 0.8.17;\n\nimport \"@openzeppelin/contracts/token/ERC20/ERC20.sol\";\nimport \"@openzeppelin/contracts/security/Pausable.sol\";\nimport \"@openzeppelin/contracts/access/Ownable.sol\";\nimport \"@quant-finance/solidity-datetime/contracts/DateTime.sol\";\nimport \"./TransactionLedger.sol\";\n\ncontract LubyCoin is ERC20, Ownable, Pausable, TransactionLedger {\n    using DateTime for uint256;\n\n    uint256 _tax = 10000;\n    mapping(address => bool) private _vips;\n    mapping(address => uint256) private _lastTransaction;\n\n    constructor(uint256 _initialSupply) ERC20(\"LubyCoin\", \"LBC\") {\n        _mint(_msgSender(), _initialSupply);\n    }\n\n    function decimals() public pure override returns (uint8) {\n        return 3;\n    }\n\n    modifier canDonate(address donor) {\n        uint256 lastDonorTransaction = _lastTransaction[donor];\n        require(\n            (lastDonorTransaction.addMonths(1)) <= block.timestamp,\n            \"LubyCoin: You need to wait a month before donating again\"\n        );\n        require(\n            msg.value <= 1 ether,\n            \"LubyCoin: You can donate a maximum of 1 ether\"\n        );\n        _;\n    }\n\n    function _calculateFee(uint256 amount) internal view returns (uint256) {\n        uint256 fee = (amount * _tax) / 100000;\n        return fee;\n    }\n\n    function _chargeFeeAndReturnNewAmount(uint256 amount)\n        internal\n        returns (uint256)\n    {\n        uint256 fee = _calculateFee(amount);\n        transfer(address(this), fee);\n        amount = amount - fee;\n        return amount;\n    }\n\n    function pause() public onlyOwner {\n        _pause();\n    }\n\n    function unpause() public onlyOwner {\n        _unpause();\n    }\n\n    function makeVip(address _newVip) public whenNotPaused onlyOwner {\n        _vips[_newVip] = true;\n    }\n\n    function setTax(uint256 _newTax) public whenNotPaused onlyOwner {\n        require(_newTax >= 0, \"LubyCoin: Tax can't be negative\");\n        _tax = _newTax;\n    }\n\n    function transferTo(address to, uint256 amount)\n        public\n        whenNotPaused\n        returns (bool)\n    {\n        if (!_vips[_msgSender()]) {\n            amount = _chargeFeeAndReturnNewAmount(amount);\n        }\n\n        return transfer(to, amount);\n    }\n\n    function donate(address to, uint256 amount)\n        public\n        payable\n        whenNotPaused\n        canDonate(_msgSender())\n        returns (bool)\n    {\n        if (!_vips[_msgSender()]) {\n            amount = _chargeFeeAndReturnNewAmount(amount);\n        }\n\n        return transfer(to, amount);\n    }\n\n    function withdrawAll() public whenNotPaused onlyOwner {\n        transfer(_msgSender(), balanceOf(address(this)));\n    }\n\n    function _afterTokenTransfer(\n        address from,\n        address to,\n        uint256 amount\n    ) internal override {\n        recordTransaction(from, to, amount);\n    }\n\n    function decreaseAllowance(address spender, uint256 subtractedValue)\n        public\n        override\n        returns (bool)\n    {\n        require(false, \"Not implemented\");\n    }\n}\n",
  "sourcePath": "/Users/brenovergilio/Documents/labluby/blockchain/contracts/LubyCoin.sol",
  "compiler": {
    "name": "solc",
    "version": "0.8.17+commit.8df45f5f.Emscripten.clang"
  },
  "schemaVersion": "3.4.10",
  "updatedAt": "2022-09-22T17:37:24.368Z",
  "devdoc": {
    "kind": "dev",
    "methods": {
      "allowance(address,address)": {
        "details": "See {IERC20-allowance}."
      },
      "approve(address,uint256)": {
        "details": "See {IERC20-approve}. NOTE: If `amount` is the maximum `uint256`, the allowance is not updated on `transferFrom`. This is semantically equivalent to an infinite approval. Requirements: - `spender` cannot be the zero address."
      },
      "balanceOf(address)": {
        "details": "See {IERC20-balanceOf}."
      },
      "decimals()": {
        "details": "Returns the number of decimals used to get its user representation. For example, if `decimals` equals `2`, a balance of `505` tokens should be displayed to a user as `5.05` (`505 / 10 ** 2`). Tokens usually opt for a value of 18, imitating the relationship between Ether and Wei. This is the value {ERC20} uses, unless this function is overridden; NOTE: This information is only used for _display_ purposes: it in no way affects any of the arithmetic of the contract, including {IERC20-balanceOf} and {IERC20-transfer}."
      },
      "decreaseAllowance(address,uint256)": {
        "details": "Atomically decreases the allowance granted to `spender` by the caller. This is an alternative to {approve} that can be used as a mitigation for problems described in {IERC20-approve}. Emits an {Approval} event indicating the updated allowance. Requirements: - `spender` cannot be the zero address. - `spender` must have allowance for the caller of at least `subtractedValue`."
      },
      "increaseAllowance(address,uint256)": {
        "details": "Atomically increases the allowance granted to `spender` by the caller. This is an alternative to {approve} that can be used as a mitigation for problems described in {IERC20-approve}. Emits an {Approval} event indicating the updated allowance. Requirements: - `spender` cannot be the zero address."
      },
      "name()": {
        "details": "Returns the name of the token."
      },
      "owner()": {
        "details": "Returns the address of the current owner."
      },
      "paused()": {
        "details": "Returns true if the contract is paused, and false otherwise."
      },
      "renounceOwnership()": {
        "details": "Leaves the contract without owner. It will not be possible to call `onlyOwner` functions anymore. Can only be called by the current owner. NOTE: Renouncing ownership will leave the contract without an owner, thereby removing any functionality that is only available to the owner."
      },
      "symbol()": {
        "details": "Returns the symbol of the token, usually a shorter version of the name."
      },
      "totalSupply()": {
        "details": "See {IERC20-totalSupply}."
      },
      "transfer(address,uint256)": {
        "details": "See {IERC20-transfer}. Requirements: - `to` cannot be the zero address. - the caller must have a balance of at least `amount`."
      },
      "transferFrom(address,address,uint256)": {
        "details": "See {IERC20-transferFrom}. Emits an {Approval} event indicating the updated allowance. This is not required by the EIP. See the note at the beginning of {ERC20}. NOTE: Does not update the allowance if the current allowance is the maximum `uint256`. Requirements: - `from` and `to` cannot be the zero address. - `from` must have a balance of at least `amount`. - the caller must have allowance for ``from``'s tokens of at least `amount`."
      },
      "transferOwnership(address)": {
        "details": "Transfers ownership of the contract to a new account (`newOwner`). Can only be called by the current owner."
      }
    },
    "version": 1
  },
  "userdoc": {
    "kind": "user",
    "methods": {},
    "version": 1
  }
}