{
  "contractName": "LubyCoin",
  "abi": [
    {
      "inputs": [
        {
          "internalType": "uint256",
          "name": "_initialSupply",
          "type": "uint256"
        }
      ],
      "stateMutability": "nonpayable",
      "type": "constructor"
    },
    {
      "anonymous": false,
      "inputs": [
        {
          "indexed": true,
          "internalType": "address",
          "name": "owner",
          "type": "address"
        },
        {
          "indexed": true,
          "internalType": "address",
          "name": "spender",
          "type": "address"
        },
        {
          "indexed": false,
          "internalType": "uint256",
          "name": "value",
          "type": "uint256"
        }
      ],
      "name": "Approval",
      "type": "event"
    },
    {
      "anonymous": false,
      "inputs": [
        {
          "indexed": true,
          "internalType": "address",
          "name": "previousOwner",
          "type": "address"
        },
        {
          "indexed": true,
          "internalType": "address",
          "name": "newOwner",
          "type": "address"
        }
      ],
      "name": "OwnershipTransferred",
      "type": "event"
    },
    {
      "anonymous": false,
      "inputs": [
        {
          "indexed": false,
          "internalType": "address",
          "name": "account",
          "type": "address"
        }
      ],
      "name": "Paused",
      "type": "event"
    },
    {
      "anonymous": false,
      "inputs": [
        {
          "indexed": true,
          "internalType": "address",
          "name": "from",
          "type": "address"
        },
        {
          "indexed": true,
          "internalType": "address",
          "name": "to",
          "type": "address"
        },
        {
          "indexed": false,
          "internalType": "uint256",
          "name": "value",
          "type": "uint256"
        }
      ],
      "name": "Transfer",
      "type": "event"
    },
    {
      "anonymous": false,
      "inputs": [
        {
          "indexed": false,
          "internalType": "address",
          "name": "account",
          "type": "address"
        }
      ],
      "name": "Unpaused",
      "type": "event"
    },
    {
      "inputs": [
        {
          "internalType": "address",
          "name": "owner",
          "type": "address"
        },
        {
          "internalType": "address",
          "name": "spender",
          "type": "address"
        }
      ],
      "name": "allowance",
      "outputs": [
        {
          "internalType": "uint256",
          "name": "",
          "type": "uint256"
        }
      ],
      "stateMutability": "view",
      "type": "function"
    },
    {
      "inputs": [
        {
          "internalType": "address",
          "name": "spender",
          "type": "address"
        },
        {
          "internalType": "uint256",
          "name": "amount",
          "type": "uint256"
        }
      ],
      "name": "approve",
      "outputs": [
        {
          "internalType": "bool",
          "name": "",
          "type": "bool"
        }
      ],
      "stateMutability": "nonpayable",
      "type": "function"
    },
    {
      "inputs": [
        {
          "internalType": "address",
          "name": "account",
          "type": "address"
        }
      ],
      "name": "balanceOf",
      "outputs": [
        {
          "internalType": "uint256",
          "name": "",
          "type": "uint256"
        }
      ],
      "stateMutability": "view",
      "type": "function"
    },
    {
      "inputs": [
        {
          "internalType": "address",
          "name": "spender",
          "type": "address"
        },
        {
          "internalType": "uint256",
          "name": "subtractedValue",
          "type": "uint256"
        }
      ],
      "name": "decreaseAllowance",
      "outputs": [
        {
          "internalType": "bool",
          "name": "",
          "type": "bool"
        }
      ],
      "stateMutability": "nonpayable",
      "type": "function"
    },
    {
      "inputs": [
        {
          "internalType": "address",
          "name": "spender",
          "type": "address"
        },
        {
          "internalType": "uint256",
          "name": "addedValue",
          "type": "uint256"
        }
      ],
      "name": "increaseAllowance",
      "outputs": [
        {
          "internalType": "bool",
          "name": "",
          "type": "bool"
        }
      ],
      "stateMutability": "nonpayable",
      "type": "function"
    },
    {
      "inputs": [],
      "name": "name",
      "outputs": [
        {
          "internalType": "string",
          "name": "",
          "type": "string"
        }
      ],
      "stateMutability": "view",
      "type": "function"
    },
    {
      "inputs": [],
      "name": "owner",
      "outputs": [
        {
          "internalType": "address",
          "name": "",
          "type": "address"
        }
      ],
      "stateMutability": "view",
      "type": "function"
    },
    {
      "inputs": [],
      "name": "paused",
      "outputs": [
        {
          "internalType": "bool",
          "name": "",
          "type": "bool"
        }
      ],
      "stateMutability": "view",
      "type": "function"
    },
    {
      "inputs": [],
      "name": "renounceOwnership",
      "outputs": [],
      "stateMutability": "nonpayable",
      "type": "function"
    },
    {
      "inputs": [],
      "name": "symbol",
      "outputs": [
        {
          "internalType": "string",
          "name": "",
          "type": "string"
        }
      ],
      "stateMutability": "view",
      "type": "function"
    },
    {
      "inputs": [],
      "name": "totalSupply",
      "outputs": [
        {
          "internalType": "uint256",
          "name": "",
          "type": "uint256"
        }
      ],
      "stateMutability": "view",
      "type": "function"
    },
    {
      "inputs": [
        {
          "internalType": "address",
          "name": "to",
          "type": "address"
        },
        {
          "internalType": "uint256",
          "name": "amount",
          "type": "uint256"
        }
      ],
      "name": "transfer",
      "outputs": [
        {
          "internalType": "bool",
          "name": "",
          "type": "bool"
        }
      ],
      "stateMutability": "nonpayable",
      "type": "function"
    },
    {
      "inputs": [
        {
          "internalType": "address",
          "name": "from",
          "type": "address"
        },
        {
          "internalType": "address",
          "name": "to",
          "type": "address"
        },
        {
          "internalType": "uint256",
          "name": "amount",
          "type": "uint256"
        }
      ],
      "name": "transferFrom",
      "outputs": [
        {
          "internalType": "bool",
          "name": "",
          "type": "bool"
        }
      ],
      "stateMutability": "nonpayable",
      "type": "function"
    },
    {
      "inputs": [
        {
          "internalType": "address",
          "name": "newOwner",
          "type": "address"
        }
      ],
      "name": "transferOwnership",
      "outputs": [],
      "stateMutability": "nonpayable",
      "type": "function"
    },
    {
      "inputs": [],
      "name": "decimals",
      "outputs": [
        {
          "internalType": "uint8",
          "name": "",
          "type": "uint8"
        }
      ],
      "stateMutability": "pure",
      "type": "function"
    },
    {
      "inputs": [],
      "name": "pause",
      "outputs": [],
      "stateMutability": "nonpayable",
      "type": "function"
    },
    {
      "inputs": [],
      "name": "unpause",
      "outputs": [],
      "stateMutability": "nonpayable",
      "type": "function"
    },
    {
      "inputs": [
        {
          "internalType": "address",
          "name": "_newVip",
          "type": "address"
        }
      ],
      "name": "makeVip",
      "outputs": [],
      "stateMutability": "nonpayable",
      "type": "function"
    },
    {
      "inputs": [
        {
          "internalType": "uint256",
          "name": "_newTax",
          "type": "uint256"
        }
      ],
      "name": "setTax",
      "outputs": [],
      "stateMutability": "nonpayable",
      "type": "function"
    },
    {
      "inputs": [
        {
          "internalType": "address",
          "name": "to",
          "type": "address"
        },
        {
          "internalType": "uint256",
          "name": "amount",
          "type": "uint256"
        }
      ],
      "name": "transferTo",
      "outputs": [
        {
          "internalType": "bool",
          "name": "",
          "type": "bool"
        }
      ],
      "stateMutability": "nonpayable",
      "type": "function"
    },
    {
      "inputs": [
        {
          "internalType": "address",
          "name": "to",
          "type": "address"
        },
        {
          "internalType": "uint256",
          "name": "amount",
          "type": "uint256"
        }
      ],
      "name": "donate",
      "outputs": [
        {
          "internalType": "bool",
          "name": "",
          "type": "bool"
        }
      ],
      "stateMutability": "payable",
      "type": "function"
    },
    {
      "inputs": [],
      "name": "withdrawAll",
      "outputs": [],
      "stateMutability": "nonpayable",
      "type": "function"
    }
  ],
  "bytecode": "0x60806040526127106006553480156200001757600080fd5b5060405162002e8c38038062002e8c83398181016040528101906200003d9190620003c2565b6040518060400160405280600881526020017f4c756279436f696e0000000000000000000000000000000000000000000000008152506040518060400160405280600381526020017f4c424300000000000000000000000000000000000000000000000000000000008152508160039081620000ba919062000664565b508060049081620000cc919062000664565b505050620000ef620000e36200013260201b60201c565b6200013a60201b60201c565b6000600560146101000a81548160ff0219169083151502179055506200012b6200011e6200013260201b60201c565b826200020060201b60201c565b5062000866565b600033905090565b6000600560009054906101000a900473ffffffffffffffffffffffffffffffffffffffff16905081600560006101000a81548173ffffffffffffffffffffffffffffffffffffffff021916908373ffffffffffffffffffffffffffffffffffffffff1602179055508173ffffffffffffffffffffffffffffffffffffffff168173ffffffffffffffffffffffffffffffffffffffff167f8be0079c531659141344cd1fd0a4f28419497f9722a3daafe3b4186f6b6457e060405160405180910390a35050565b600073ffffffffffffffffffffffffffffffffffffffff168273ffffffffffffffffffffffffffffffffffffffff160362000272576040517f08c379a00000000000000000000000000000000000000000000000000000000081526004016200026990620007ac565b60405180910390fd5b62000286600083836200037860201b60201c565b80600260008282546200029a9190620007fd565b92505081905550806000808473ffffffffffffffffffffffffffffffffffffffff1673ffffffffffffffffffffffffffffffffffffffff1681526020019081526020016000206000828254620002f19190620007fd565b925050819055508173ffffffffffffffffffffffffffffffffffffffff16600073ffffffffffffffffffffffffffffffffffffffff167fddf252ad1be2c89b69c2b068fc378daa952ba7f163c4a11628f55a4df523b3ef8360405162000358919062000849565b60405180910390a362000374600083836200037d60201b60201c565b5050565b505050565b505050565b600080fd5b6000819050919050565b6200039c8162000387565b8114620003a857600080fd5b50565b600081519050620003bc8162000391565b92915050565b600060208284031215620003db57620003da62000382565b5b6000620003eb84828501620003ab565b91505092915050565b600081519050919050565b7f4e487b7100000000000000000000000000000000000000000000000000000000600052604160045260246000fd5b7f4e487b7100000000000000000000000000000000000000000000000000000000600052602260045260246000fd5b600060028204905060018216806200047657607f821691505b6020821081036200048c576200048b6200042e565b5b50919050565b60008190508160005260206000209050919050565b60006020601f8301049050919050565b600082821b905092915050565b600060088302620004f67fffffffffffffffffffffffffffffffffffffffffffffffffffffffffffffffff82620004b7565b620005028683620004b7565b95508019841693508086168417925050509392505050565b6000819050919050565b6000620005456200053f620005398462000387565b6200051a565b62000387565b9050919050565b6000819050919050565b620005618362000524565b6200057962000570826200054c565b848454620004c4565b825550505050565b600090565b6200059062000581565b6200059d81848462000556565b505050565b5b81811015620005c557620005b960008262000586565b600181019050620005a3565b5050565b601f8211156200061457620005de8162000492565b620005e984620004a7565b81016020851015620005f9578190505b620006116200060885620004a7565b830182620005a2565b50505b505050565b600082821c905092915050565b6000620006396000198460080262000619565b1980831691505092915050565b600062000654838362000626565b9150826002028217905092915050565b6200066f82620003f4565b67ffffffffffffffff8111156200068b576200068a620003ff565b5b6200069782546200045d565b620006a4828285620005c9565b600060209050601f831160018114620006dc5760008415620006c7578287015190505b620006d3858262000646565b86555062000743565b601f198416620006ec8662000492565b60005b828110156200071657848901518255600182019150602085019450602081019050620006ef565b8683101562000736578489015162000732601f89168262000626565b8355505b6001600288020188555050505b505050505050565b600082825260208201905092915050565b7f45524332303a206d696e7420746f20746865207a65726f206164647265737300600082015250565b600062000794601f836200074b565b9150620007a1826200075c565b602082019050919050565b60006020820190508181036000830152620007c78162000785565b9050919050565b7f4e487b7100000000000000000000000000000000000000000000000000000000600052601160045260246000fd5b60006200080a8262000387565b9150620008178362000387565b9250828201905080821115620008325762000831620007ce565b5b92915050565b620008438162000387565b82525050565b600060208201905062000860600083018462000838565b92915050565b61261680620008766000396000f3fe6080604052600436106101355760003560e01c806370a08231116100ab57806395d89b411161006f57806395d89b41146103f0578063a457c2d71461041b578063a9059cbb14610458578063dd62ed3e14610495578063e69d849d146104d2578063f2fde38b1461050257610135565b806370a0823114610343578063715018a6146103805780638456cb5914610397578063853828b6146103ae5780638da5cb5b146103c557610135565b80632e5bb6ff116100fd5780632e5bb6ff14610247578063313ce56714610270578063395093511461029b5780633f4ba83a146102d857806349475ebb146102ef5780635c975abb1461031857610135565b806306fdde031461013a578063095ea7b31461016557806318160ddd146101a257806323b872dd146101cd5780632ccb1b301461020a575b600080fd5b34801561014657600080fd5b5061014f61052b565b60405161015c91906118bc565b60405180910390f35b34801561017157600080fd5b5061018c60048036038101906101879190611977565b6105bd565b60405161019991906119d2565b60405180910390f35b3480156101ae57600080fd5b506101b76105e0565b6040516101c491906119fc565b60405180910390f35b3480156101d957600080fd5b506101f460048036038101906101ef9190611a17565b6105ea565b60405161020191906119d2565b60405180910390f35b34801561021657600080fd5b50610231600480360381019061022c9190611977565b610619565b60405161023e91906119d2565b60405180910390f35b34801561025357600080fd5b5061026e60048036038101906102699190611a6a565b610699565b005b34801561027c57600080fd5b506102856106f7565b6040516102929190611ab3565b60405180910390f35b3480156102a757600080fd5b506102c260048036038101906102bd9190611977565b610700565b6040516102cf91906119d2565b60405180910390f35b3480156102e457600080fd5b506102ed610737565b005b3480156102fb57600080fd5b5061031660048036038101906103119190611ace565b610749565b005b34801561032457600080fd5b5061032d6107b4565b60405161033a91906119d2565b60405180910390f35b34801561034f57600080fd5b5061036a60048036038101906103659190611ace565b6107cb565b60405161037791906119fc565b60405180910390f35b34801561038c57600080fd5b50610395610813565b005b3480156103a357600080fd5b506103ac610827565b005b3480156103ba57600080fd5b506103c3610839565b005b3480156103d157600080fd5b506103da610865565b6040516103e79190611b0a565b60405180910390f35b3480156103fc57600080fd5b5061040561088f565b60405161041291906118bc565b60405180910390f35b34801561042757600080fd5b50610442600480360381019061043d9190611977565b610921565b60405161044f91906119d2565b60405180910390f35b34801561046457600080fd5b5061047f600480360381019061047a9190611977565b610998565b60405161048c91906119d2565b60405180910390f35b3480156104a157600080fd5b506104bc60048036038101906104b79190611b25565b6109bb565b6040516104c991906119fc565b60405180910390f35b6104ec60048036038101906104e79190611977565b610a42565b6040516104f991906119d2565b60405180910390f35b34801561050e57600080fd5b5061052960048036038101906105249190611ace565b610bb1565b005b60606003805461053a90611b94565b80601f016020809104026020016040519081016040528092919081815260200182805461056690611b94565b80156105b35780601f10610588576101008083540402835291602001916105b3565b820191906000526020600020905b81548152906001019060200180831161059657829003601f168201915b5050505050905090565b6000806105c8610c34565b90506105d5818585610c3c565b600191505092915050565b6000600254905090565b6000806105f5610c34565b9050610602858285610e05565b61060d858585610e91565b60019150509392505050565b6000610623611110565b6007600061062f610c34565b73ffffffffffffffffffffffffffffffffffffffff1673ffffffffffffffffffffffffffffffffffffffff16815260200190815260200160002060009054906101000a900460ff16610687576106848261115a565b91505b6106918383610998565b905092915050565b6106a1611110565b6106a961118a565b60008110156106ed576040517f08c379a00000000000000000000000000000000000000000000000000000000081526004016106e490611c11565b60405180910390fd5b8060068190555050565b60006003905090565b60008061070b610c34565b905061072c81858561071d85896109bb565b6107279190611c60565b610c3c565b600191505092915050565b61073f61118a565b610747611208565b565b610751611110565b61075961118a565b6001600760008373ffffffffffffffffffffffffffffffffffffffff1673ffffffffffffffffffffffffffffffffffffffff16815260200190815260200160002060006101000a81548160ff02191690831515021790555050565b6000600560149054906101000a900460ff16905090565b60008060008373ffffffffffffffffffffffffffffffffffffffff1673ffffffffffffffffffffffffffffffffffffffff168152602001908152602001600020549050919050565b61081b61118a565b610825600061126b565b565b61082f61118a565b610837611331565b565b610841611110565b61084961118a565b610862610854610c34565b61085d306107cb565b610998565b50565b6000600560009054906101000a900473ffffffffffffffffffffffffffffffffffffffff16905090565b60606004805461089e90611b94565b80601f01602080910402602001604051908101604052809291908181526020018280546108ca90611b94565b80156109175780601f106108ec57610100808354040283529160200191610917565b820191906000526020600020905b8154815290600101906020018083116108fa57829003601f168201915b5050505050905090565b60008061092c610c34565b9050600061093a82866109bb565b90508381101561097f576040517f08c379a000000000000000000000000000000000000000000000000000000000815260040161097690611d06565b60405180910390fd5b61098c8286868403610c3c565b60019250505092915050565b6000806109a3610c34565b90506109b0818585610e91565b600191505092915050565b6000600160008473ffffffffffffffffffffffffffffffffffffffff1673ffffffffffffffffffffffffffffffffffffffff16815260200190815260200160002060008373ffffffffffffffffffffffffffffffffffffffff1673ffffffffffffffffffffffffffffffffffffffff16815260200190815260200160002054905092915050565b6000610a4c611110565b610a54610c34565b6000600860008373ffffffffffffffffffffffffffffffffffffffff1673ffffffffffffffffffffffffffffffffffffffff16815260200190815260200160002054905042610aad60018361139490919063ffffffff16565b1115610aee576040517f08c379a0000000000000000000000000000000000000000000000000000000008152600401610ae590611d98565b60405180910390fd5b670de0b6b3a7640000341115610b39576040517f08c379a0000000000000000000000000000000000000000000000000000000008152600401610b3090611e2a565b60405180910390fd5b60076000610b45610c34565b73ffffffffffffffffffffffffffffffffffffffff1673ffffffffffffffffffffffffffffffffffffffff16815260200190815260200160002060009054906101000a900460ff16610b9d57610b9a8461115a565b93505b610ba78585610998565b9250505092915050565b610bb961118a565b600073ffffffffffffffffffffffffffffffffffffffff168173ffffffffffffffffffffffffffffffffffffffff1603610c28576040517f08c379a0000000000000000000000000000000000000000000000000000000008152600401610c1f90611ebc565b60405180910390fd5b610c318161126b565b50565b600033905090565b600073ffffffffffffffffffffffffffffffffffffffff168373ffffffffffffffffffffffffffffffffffffffff1603610cab576040517f08c379a0000000000000000000000000000000000000000000000000000000008152600401610ca290611f4e565b60405180910390fd5b600073ffffffffffffffffffffffffffffffffffffffff168273ffffffffffffffffffffffffffffffffffffffff1603610d1a576040517f08c379a0000000000000000000000000000000000000000000000000000000008152600401610d1190611fe0565b60405180910390fd5b80600160008573ffffffffffffffffffffffffffffffffffffffff1673ffffffffffffffffffffffffffffffffffffffff16815260200190815260200160002060008473ffffffffffffffffffffffffffffffffffffffff1673ffffffffffffffffffffffffffffffffffffffff168152602001908152602001600020819055508173ffffffffffffffffffffffffffffffffffffffff168373ffffffffffffffffffffffffffffffffffffffff167f8c5be1e5ebec7d5bd14f71427d1e84f3dd0314c0f7b2291e5b200ac8c7c3b92583604051610df891906119fc565b60405180910390a3505050565b6000610e1184846109bb565b90507fffffffffffffffffffffffffffffffffffffffffffffffffffffffffffffffff8114610e8b5781811015610e7d576040517f08c379a0000000000000000000000000000000000000000000000000000000008152600401610e749061204c565b60405180910390fd5b610e8a8484848403610c3c565b5b50505050565b600073ffffffffffffffffffffffffffffffffffffffff168373ffffffffffffffffffffffffffffffffffffffff1603610f00576040517f08c379a0000000000000000000000000000000000000000000000000000000008152600401610ef7906120de565b60405180910390fd5b600073ffffffffffffffffffffffffffffffffffffffff168273ffffffffffffffffffffffffffffffffffffffff1603610f6f576040517f08c379a0000000000000000000000000000000000000000000000000000000008152600401610f6690612170565b60405180910390fd5b610f7a838383611477565b60008060008573ffffffffffffffffffffffffffffffffffffffff1673ffffffffffffffffffffffffffffffffffffffff16815260200190815260200160002054905081811015611000576040517f08c379a0000000000000000000000000000000000000000000000000000000008152600401610ff790612202565b60405180910390fd5b8181036000808673ffffffffffffffffffffffffffffffffffffffff1673ffffffffffffffffffffffffffffffffffffffff16815260200190815260200160002081905550816000808573ffffffffffffffffffffffffffffffffffffffff1673ffffffffffffffffffffffffffffffffffffffff16815260200190815260200160002060008282546110939190611c60565b925050819055508273ffffffffffffffffffffffffffffffffffffffff168473ffffffffffffffffffffffffffffffffffffffff167fddf252ad1be2c89b69c2b068fc378daa952ba7f163c4a11628f55a4df523b3ef846040516110f791906119fc565b60405180910390a361110a84848461147c565b50505050565b6111186107b4565b15611158576040517f08c379a000000000000000000000000000000000000000000000000000000000815260040161114f9061226e565b60405180910390fd5b565b60008061116683611481565b90506111723082610998565b50808361117f919061228e565b925082915050919050565b611192610c34565b73ffffffffffffffffffffffffffffffffffffffff166111b0610865565b73ffffffffffffffffffffffffffffffffffffffff1614611206576040517f08c379a00000000000000000000000000000000000000000000000000000000081526004016111fd9061230e565b60405180910390fd5b565b6112106114ab565b6000600560146101000a81548160ff0219169083151502179055507f5db9ee0a495bf2e6ff9c91a7834c1ba4fdd244a5e8aa4e537bd38aeae4b073aa611254610c34565b6040516112619190611b0a565b60405180910390a1565b6000600560009054906101000a900473ffffffffffffffffffffffffffffffffffffffff16905081600560006101000a81548173ffffffffffffffffffffffffffffffffffffffff021916908373ffffffffffffffffffffffffffffffffffffffff1602179055508173ffffffffffffffffffffffffffffffffffffffff168173ffffffffffffffffffffffffffffffffffffffff167f8be0079c531659141344cd1fd0a4f28419497f9722a3daafe3b4186f6b6457e060405160405180910390a35050565b611339611110565b6001600560146101000a81548160ff0219169083151502179055507f62e78cea01bee320cd4e420270b5ea74000d11b0c9f74754ebdbfc544b05a25861137d610c34565b60405161138a9190611b0a565b60405180910390a1565b6000806000806113b162015180876113ac919061235d565b6114f4565b92509250925084826113c39190611c60565b9150600c6001836113d4919061228e565b6113de919061235d565b836113e99190611c60565b92506001600c6001846113fc919061228e565b611406919061238e565b6114109190611c60565b9150600061141e84846115f9565b90508082111561142c578091505b620151808761143b919061238e565b6201518061144a868686611684565b61145491906123bf565b61145e9190611c60565b94508685101561146d57600080fd5b5050505092915050565b505050565b505050565b600080620186a06006548461149691906123bf565b6114a0919061235d565b905080915050919050565b6114b36107b4565b6114f2576040517f08c379a00000000000000000000000000000000000000000000000000000000081526004016114e99061244d565b60405180910390fd5b565b600080600080849050600062253d8c62010bd98301019050600062023ab182600402816115245761152361232e565b5b059050600460038262023ab10201816115405761153f61232e565b5b0582039150600062164b0960018401610fa002816115615761156061232e565b5b059050601f6004826105b5028161157b5761157a61232e565b5b058403019250600061098f84605002816115985761159761232e565b5b059050600060508261098f02816115b2576115b161232e565b5b0585039050600b82816115c8576115c761232e565b5b05945084600c0260028301039150848360318603606402010192508298508197508096505050505050509193909250565b6000600182148061160a5750600382145b806116155750600582145b806116205750600782145b8061162b5750600882145b806116365750600a82145b806116415750600c82145b1561164f57601f905061167e565b6002821461166057601e905061167d565b611669836117e3565b61167457601c611677565b601d5b60ff1690505b5b92915050565b60006107b284101561169557600080fd5b600084905060008490506000849050600062253d8c60046064600c600e876116bd9190612477565b6116c791906124ba565b611324886116d59190612524565b6116df9190612524565b6116e991906124ba565b60036116f59190612568565b6116ff91906124ba565b600c80600c600e886117119190612477565b61171b91906124ba565b6117259190612568565b6002876117329190612477565b61173c9190612477565b61016f6117499190612568565b61175391906124ba565b6004600c600e886117649190612477565b61176e91906124ba565b6112c08961177c9190612524565b6117869190612524565b6105b56117939190612568565b61179d91906124ba565b617d4b866117ab9190612477565b6117b59190612524565b6117bf9190612524565b6117c99190612477565b6117d39190612477565b9050809450505050509392505050565b6000806004836117f3919061238e565b14801561180d5750600060648361180a919061238e565b14155b806118255750600061019083611823919061238e565b145b9050919050565b600081519050919050565b600082825260208201905092915050565b60005b8381101561186657808201518184015260208101905061184b565b60008484015250505050565b6000601f19601f8301169050919050565b600061188e8261182c565b6118988185611837565b93506118a8818560208601611848565b6118b181611872565b840191505092915050565b600060208201905081810360008301526118d68184611883565b905092915050565b600080fd5b600073ffffffffffffffffffffffffffffffffffffffff82169050919050565b600061190e826118e3565b9050919050565b61191e81611903565b811461192957600080fd5b50565b60008135905061193b81611915565b92915050565b6000819050919050565b61195481611941565b811461195f57600080fd5b50565b6000813590506119718161194b565b92915050565b6000806040838503121561198e5761198d6118de565b5b600061199c8582860161192c565b92505060206119ad85828601611962565b9150509250929050565b60008115159050919050565b6119cc816119b7565b82525050565b60006020820190506119e760008301846119c3565b92915050565b6119f681611941565b82525050565b6000602082019050611a1160008301846119ed565b92915050565b600080600060608486031215611a3057611a2f6118de565b5b6000611a3e8682870161192c565b9350506020611a4f8682870161192c565b9250506040611a6086828701611962565b9150509250925092565b600060208284031215611a8057611a7f6118de565b5b6000611a8e84828501611962565b91505092915050565b600060ff82169050919050565b611aad81611a97565b82525050565b6000602082019050611ac86000830184611aa4565b92915050565b600060208284031215611ae457611ae36118de565b5b6000611af28482850161192c565b91505092915050565b611b0481611903565b82525050565b6000602082019050611b1f6000830184611afb565b92915050565b60008060408385031215611b3c57611b3b6118de565b5b6000611b4a8582860161192c565b9250506020611b5b8582860161192c565b9150509250929050565b7f4e487b7100000000000000000000000000000000000000000000000000000000600052602260045260246000fd5b60006002820490506001821680611bac57607f821691505b602082108103611bbf57611bbe611b65565b5b50919050565b7f4c756279436f696e3a205461782063616e2774206265206e6567617469766500600082015250565b6000611bfb601f83611837565b9150611c0682611bc5565b602082019050919050565b60006020820190508181036000830152611c2a81611bee565b9050919050565b7f4e487b7100000000000000000000000000000000000000000000000000000000600052601160045260246000fd5b6000611c6b82611941565b9150611c7683611941565b9250828201905080821115611c8e57611c8d611c31565b5b92915050565b7f45524332303a2064656372656173656420616c6c6f77616e63652062656c6f7760008201527f207a65726f000000000000000000000000000000000000000000000000000000602082015250565b6000611cf0602583611837565b9150611cfb82611c94565b604082019050919050565b60006020820190508181036000830152611d1f81611ce3565b9050919050565b7f4c756279436f696e3a20596f75206e65656420746f20776169742061206d6f6e60008201527f7468206265666f726520646f6e6174696e6720616761696e0000000000000000602082015250565b6000611d82603883611837565b9150611d8d82611d26565b604082019050919050565b60006020820190508181036000830152611db181611d75565b9050919050565b7f4c756279436f696e3a20596f752063616e20646f6e6174652061206d6178696d60008201527f756d206f66203120657468657200000000000000000000000000000000000000602082015250565b6000611e14602d83611837565b9150611e1f82611db8565b604082019050919050565b60006020820190508181036000830152611e4381611e07565b9050919050565b7f4f776e61626c653a206e6577206f776e657220697320746865207a65726f206160008201527f6464726573730000000000000000000000000000000000000000000000000000602082015250565b6000611ea6602683611837565b9150611eb182611e4a565b604082019050919050565b60006020820190508181036000830152611ed581611e99565b9050919050565b7f45524332303a20617070726f76652066726f6d20746865207a65726f2061646460008201527f7265737300000000000000000000000000000000000000000000000000000000602082015250565b6000611f38602483611837565b9150611f4382611edc565b604082019050919050565b60006020820190508181036000830152611f6781611f2b565b9050919050565b7f45524332303a20617070726f766520746f20746865207a65726f20616464726560008201527f7373000000000000000000000000000000000000000000000000000000000000602082015250565b6000611fca602283611837565b9150611fd582611f6e565b604082019050919050565b60006020820190508181036000830152611ff981611fbd565b9050919050565b7f45524332303a20696e73756666696369656e7420616c6c6f77616e6365000000600082015250565b6000612036601d83611837565b915061204182612000565b602082019050919050565b6000602082019050818103600083015261206581612029565b9050919050565b7f45524332303a207472616e736665722066726f6d20746865207a65726f20616460008201527f6472657373000000000000000000000000000000000000000000000000000000602082015250565b60006120c8602583611837565b91506120d38261206c565b604082019050919050565b600060208201905081810360008301526120f7816120bb565b9050919050565b7f45524332303a207472616e7366657220746f20746865207a65726f206164647260008201527f6573730000000000000000000000000000000000000000000000000000000000602082015250565b600061215a602383611837565b9150612165826120fe565b604082019050919050565b600060208201905081810360008301526121898161214d565b9050919050565b7f45524332303a207472616e7366657220616d6f756e742065786365656473206260008201527f616c616e63650000000000000000000000000000000000000000000000000000602082015250565b60006121ec602683611837565b91506121f782612190565b604082019050919050565b6000602082019050818103600083015261221b816121df565b9050919050565b7f5061757361626c653a2070617573656400000000000000000000000000000000600082015250565b6000612258601083611837565b915061226382612222565b602082019050919050565b600060208201905081810360008301526122878161224b565b9050919050565b600061229982611941565b91506122a483611941565b92508282039050818111156122bc576122bb611c31565b5b92915050565b7f4f776e61626c653a2063616c6c6572206973206e6f7420746865206f776e6572600082015250565b60006122f8602083611837565b9150612303826122c2565b602082019050919050565b60006020820190508181036000830152612327816122eb565b9050919050565b7f4e487b7100000000000000000000000000000000000000000000000000000000600052601260045260246000fd5b600061236882611941565b915061237383611941565b9250826123835761238261232e565b5b828204905092915050565b600061239982611941565b91506123a483611941565b9250826123b4576123b361232e565b5b828206905092915050565b60006123ca82611941565b91506123d583611941565b92508282026123e381611941565b915082820484148315176123fa576123f9611c31565b5b5092915050565b7f5061757361626c653a206e6f7420706175736564000000000000000000000000600082015250565b6000612437601483611837565b915061244282612401565b602082019050919050565b600060208201905081810360008301526124668161242a565b9050919050565b6000819050919050565b60006124828261246d565b915061248d8361246d565b92508282039050818112600084121682821360008512151617156124b4576124b3611c31565b5b92915050565b60006124c58261246d565b91506124d08361246d565b9250826124e0576124df61232e565b5b600160000383147f80000000000000000000000000000000000000000000000000000000000000008314161561251957612518611c31565b5b828205905092915050565b600061252f8261246d565b915061253a8361246d565b92508282019050828112156000831216838212600084121516171561256257612561611c31565b5b92915050565b60006125738261246d565b915061257e8361246d565b925082820261258c8161246d565b91507f800000000000000000000000000000000000000000000000000000000000000084146000841216156125c4576125c3611c31565b5b82820584148315176125d9576125d8611c31565b5b509291505056fea2646970667358221220ae2046eca2aea96da1011a075f0e152c5183f6cb2f4b797ac0395b408a9f6d2464736f6c63430008110033",
  "immutableReferences": {},
  "source": "// SPDX-License-Identifier: MIT\npragma solidity 0.8.17;\n\nimport \"@openzeppelin/contracts/token/ERC20/ERC20.sol\";\nimport \"@openzeppelin/contracts/security/Pausable.sol\";\nimport \"@openzeppelin/contracts/access/Ownable.sol\";\nimport \"@quant-finance/solidity-datetime/contracts/DateTime.sol\";\n\ncontract LubyCoin is ERC20, Ownable, Pausable {\n    using DateTime for uint256;\n\n    uint256 _tax = 10000;\n    mapping(address => bool) private _vips;\n    mapping(address => uint256) private _lastTransaction;\n\n    constructor(uint256 _initialSupply) ERC20(\"LubyCoin\", \"LBC\") {\n        _mint(_msgSender(), _initialSupply);\n    }\n\n    function decimals() public pure override returns (uint8) {\n        return 3;\n    }\n\n    modifier canDonate(address donor) {\n        uint256 lastDonorTransaction = _lastTransaction[donor];\n        require(\n            (lastDonorTransaction.addMonths(1)) <= block.timestamp,\n            \"LubyCoin: You need to wait a month before donating again\"\n        );\n        require(\n            msg.value <= 1 ether,\n            \"LubyCoin: You can donate a maximum of 1 ether\"\n        );\n        _;\n    }\n\n    function _calculateFee(uint256 amount) internal view returns (uint256) {\n        uint256 fee = (amount * _tax) / 100000;\n        return fee;\n    }\n\n    function _chargeFeeAndReturnNewAmount(uint256 amount)\n        internal\n        returns (uint256)\n    {\n        uint256 fee = _calculateFee(amount);\n        transfer(address(this), fee);\n        amount = amount - fee;\n        return amount;\n    }\n\n    function pause() public onlyOwner {\n        _pause();\n    }\n\n    function unpause() public onlyOwner {\n        _unpause();\n    }\n\n    function makeVip(address _newVip) public whenNotPaused onlyOwner {\n        _vips[_newVip] = true;\n    }\n\n    function setTax(uint256 _newTax) public whenNotPaused onlyOwner {\n        require(_newTax >= 0, \"LubyCoin: Tax can't be negative\");\n        _tax = _newTax;\n    }\n\n    function transferTo(address to, uint256 amount)\n        public\n        whenNotPaused\n        returns (bool)\n    {\n        if (!_vips[_msgSender()]) {\n            amount = _chargeFeeAndReturnNewAmount(amount);\n        }\n\n        return transfer(to, amount);\n    }\n\n    function donate(address to, uint256 amount)\n        public\n        payable\n        whenNotPaused\n        canDonate(_msgSender())\n        returns (bool)\n    {\n        if (!_vips[_msgSender()]) {\n            amount = _chargeFeeAndReturnNewAmount(amount);\n        }\n\n        return transfer(to, amount);\n    }\n\n    function withdrawAll() public whenNotPaused onlyOwner {\n        transfer(_msgSender(), balanceOf(address(this)));\n    }\n}\n",
  "sourcePath": "/Users/brenovergilio/Documents/labluby/blockchain/contracts/LubyCoin.sol",
  "compiler": {
    "name": "solc",
    "version": "0.8.17+commit.8df45f5f.Emscripten.clang"
  },
  "schemaVersion": "3.4.10",
  "updatedAt": "2022-09-22T14:09:42.529Z",
  "devdoc": {
    "kind": "dev",
    "methods": {
      "allowance(address,address)": {
        "details": "See {IERC20-allowance}."
      },
      "approve(address,uint256)": {
        "details": "See {IERC20-approve}. NOTE: If `amount` is the maximum `uint256`, the allowance is not updated on `transferFrom`. This is semantically equivalent to an infinite approval. Requirements: - `spender` cannot be the zero address."
      },
      "balanceOf(address)": {
        "details": "See {IERC20-balanceOf}."
      },
      "decimals()": {
        "details": "Returns the number of decimals used to get its user representation. For example, if `decimals` equals `2`, a balance of `505` tokens should be displayed to a user as `5.05` (`505 / 10 ** 2`). Tokens usually opt for a value of 18, imitating the relationship between Ether and Wei. This is the value {ERC20} uses, unless this function is overridden; NOTE: This information is only used for _display_ purposes: it in no way affects any of the arithmetic of the contract, including {IERC20-balanceOf} and {IERC20-transfer}."
      },
      "decreaseAllowance(address,uint256)": {
        "details": "Atomically decreases the allowance granted to `spender` by the caller. This is an alternative to {approve} that can be used as a mitigation for problems described in {IERC20-approve}. Emits an {Approval} event indicating the updated allowance. Requirements: - `spender` cannot be the zero address. - `spender` must have allowance for the caller of at least `subtractedValue`."
      },
      "increaseAllowance(address,uint256)": {
        "details": "Atomically increases the allowance granted to `spender` by the caller. This is an alternative to {approve} that can be used as a mitigation for problems described in {IERC20-approve}. Emits an {Approval} event indicating the updated allowance. Requirements: - `spender` cannot be the zero address."
      },
      "name()": {
        "details": "Returns the name of the token."
      },
      "owner()": {
        "details": "Returns the address of the current owner."
      },
      "paused()": {
        "details": "Returns true if the contract is paused, and false otherwise."
      },
      "renounceOwnership()": {
        "details": "Leaves the contract without owner. It will not be possible to call `onlyOwner` functions anymore. Can only be called by the current owner. NOTE: Renouncing ownership will leave the contract without an owner, thereby removing any functionality that is only available to the owner."
      },
      "symbol()": {
        "details": "Returns the symbol of the token, usually a shorter version of the name."
      },
      "totalSupply()": {
        "details": "See {IERC20-totalSupply}."
      },
      "transfer(address,uint256)": {
        "details": "See {IERC20-transfer}. Requirements: - `to` cannot be the zero address. - the caller must have a balance of at least `amount`."
      },
      "transferFrom(address,address,uint256)": {
        "details": "See {IERC20-transferFrom}. Emits an {Approval} event indicating the updated allowance. This is not required by the EIP. See the note at the beginning of {ERC20}. NOTE: Does not update the allowance if the current allowance is the maximum `uint256`. Requirements: - `from` and `to` cannot be the zero address. - `from` must have a balance of at least `amount`. - the caller must have allowance for ``from``'s tokens of at least `amount`."
      },
      "transferOwnership(address)": {
        "details": "Transfers ownership of the contract to a new account (`newOwner`). Can only be called by the current owner."
      }
    },
    "version": 1
  },
  "userdoc": {
    "kind": "user",
    "methods": {},
    "version": 1
  }
}